{
  "contractName": "ERC721",
  "abi": [
    {
      "anonymous": false,
      "inputs": [
        {
          "indexed": true,
          "internalType": "address",
          "name": "_from",
          "type": "address"
        },
        {
          "indexed": true,
          "internalType": "address",
          "name": "_to",
          "type": "address"
        },
        {
          "indexed": true,
          "internalType": "uint256",
          "name": "_tokenId",
          "type": "uint256"
        }
      ],
      "name": "Transfer",
      "type": "event"
    },
    {
      "inputs": [
        {
          "internalType": "address",
          "name": "_owner",
          "type": "address"
        }
      ],
      "name": "balanceOf",
      "outputs": [
        {
          "internalType": "uint256",
          "name": "",
          "type": "uint256"
        }
      ],
      "stateMutability": "view",
      "type": "function"
    },
    {
      "inputs": [
        {
          "internalType": "uint256",
          "name": "tokenId",
          "type": "uint256"
        }
      ],
      "name": "ownerOf",
      "outputs": [
        {
          "internalType": "address",
          "name": "",
          "type": "address"
        }
      ],
      "stateMutability": "view",
      "type": "function"
    },
    {
      "inputs": [
        {
          "internalType": "address",
          "name": "_from",
          "type": "address"
        },
        {
          "internalType": "address",
          "name": "_to",
          "type": "address"
        },
        {
          "internalType": "uint256",
          "name": "_tokenId",
          "type": "uint256"
        }
      ],
      "name": "transferFrom",
      "outputs": [],
      "stateMutability": "nonpayable",
      "type": "function"
    }
  ],
  "bytecode": "0x608060405234801561001057600080fd5b506104af806100206000396000f3fe608060405234801561001057600080fd5b50600436106100415760003560e01c806323b872dd146100465780636352211e1461005b57806370a082311461008b575b600080fd5b610059610054366004610357565b6100ac565b005b61006e610069366004610398565b6100bc565b6040516001600160a01b0390911681526020015b60405180910390f35b61009e6100993660046103b1565b610100565b604051908152602001610082565b6100b7838383610144565b505050565b6000818152602081905260408120546001600160a01b0316806100fa5760405162461bcd60e51b81526004016100f1906103d5565b60405180910390fd5b92915050565b60006001600160a01b0382166101285760405162461bcd60e51b81526004016100f1906103d5565b506001600160a01b031660009081526001602052604090205490565b6001600160a01b0382166101a65760405162461bcd60e51b815260206004820152602360248201527f455243373231205472616e7366657220746f20746865207a65726f206164647260448201526265737360e81b60648201526084016100f1565b6040516331a9108f60e11b8152600481018290526001600160a01b038416903090636352211e90602401602060405180830381865afa1580156101ed573d6000803e3d6000fd5b505050506040513d601f19601f820116820180604052508101906102119190610417565b6001600160a01b0316146102835760405162461bcd60e51b815260206004820152603360248201527f547279696e6720746f207472616e73666572206120746f6b656e20746865206160448201527232323932b9b9903237b2b9903737ba1037bbb760691b60648201526084016100f1565b6001600160a01b038316600090815260016020819052604082208054919290916102ae90849061044a565b90915550506001600160a01b038216600090815260016020819052604082208054919290916102de908490610461565b909155505060008181526020819052604080822080546001600160a01b0319166001600160a01b0386811691821790925591518493918716917fddf252ad1be2c89b69c2b068fc378daa952ba7f163c4a11628f55a4df523b3ef91a4505050565b6001600160a01b038116811461035457600080fd5b50565b60008060006060848603121561036c57600080fd5b83356103778161033f565b925060208401356103878161033f565b929592945050506040919091013590565b6000602082840312156103aa57600080fd5b5035919050565b6000602082840312156103c357600080fd5b81356103ce8161033f565b9392505050565b60208082526022908201527f6f776e657220717565727920666f72206e6f6e2d6578697374656e7420746f6b60408201526132b760f11b606082015260800190565b60006020828403121561042957600080fd5b81516103ce8161033f565b634e487b7160e01b600052601160045260246000fd5b60008282101561045c5761045c610434565b500390565b6000821982111561047457610474610434565b50019056fea26469706673582212203a841cf65541b8c3b7baa96f521173019421cdd80e54ccc481181e0a00437c8164736f6c634300080c0033",
  "immutableReferences": {},
  "source": "// SPDX-License-Identifier: MIT\r\npragma solidity ^0.8.0;\r\n\r\ncontract ERC721 {\r\n\r\n    // Mapping from tokenId to the owner address\r\n    mapping(uint256 => address) private _tokenOwner; \r\n\r\n    // Mapping from owner to number of owned tokens\r\n    mapping(address => uint256) private _countOfTokenOwned; \r\n\r\n    // Mapping from token ids to approved addresses\r\n    mapping(uint256 => address) private _tokenApprovals;\r\n\r\n\r\n    event Transfer(\r\n        address indexed _from,\r\n        address indexed _to,\r\n        uint256 indexed _tokenId\r\n    );\r\n\r\n    // Function to return the balance of the owner\r\n    function balanceOf(address _owner) external view returns (uint256) {\r\n\r\n        // Requires that the owner address cannot be zero\r\n        require(_owner != address(0), \"owner query for non-existent token\");\r\n        \r\n        // Returns the balance of Owner\r\n        return _countOfTokenOwned[_owner];\r\n    }\r\n\r\n    // Function to return the address of the token owner by the tokenId\r\n    function ownerOf(uint256 tokenId) external view returns (address) {\r\n\r\n        // Assigns the mapping of owner address from tokenId to owner variable\r\n        address owner = _tokenOwner[tokenId];\r\n\r\n        // Requires that the owner address cannot be zero\r\n        require(owner != address(0), \"owner query for non-existent token\");\r\n\r\n        // Returns the address of the token owner by the tokenId\r\n        return owner;\r\n    }\r\n\r\n\r\n    function _exists(uint256 tokenId) internal view returns(bool) {\r\n\r\n        // Setting the address of NFT owner to check the mapping of the address\r\n        // From tokenOwner at the tokenId\r\n        address owner = _tokenOwner[tokenId];\r\n\r\n        // Return truthiness that address is not zero\r\n        return owner != address(0);\r\n    }\r\n\r\n    function _transferFrom(address _from, address _to, uint256 _tokenId) internal {\r\n\r\n        require(_to != address(0), \"ERC721 Transfer to the zero address\");\r\n        require(this.ownerOf(_tokenId) == _from, \"Trying to transfer a token the address does not own\");\r\n        _countOfTokenOwned[_from] -= 1;\r\n        _countOfTokenOwned[_to] += 1;\r\n        _tokenOwner[_tokenId] = _to;\r\n\r\n        emit Transfer(_from, _to, _tokenId);\r\n    }\r\n\r\n    function transferFrom(address _from, address _to, uint256 _tokenId) public {\r\n        _transferFrom(_from, _to, _tokenId);\r\n    }\r\n\r\n    function _mintToken(address _to, uint256 tokenId) internal virtual {\r\n\r\n        // Require that the address is not zero\r\n        require(_to != address(0), \"ERC721: minted to zero address\");\r\n\r\n        // Require that the token does not alrady exit\r\n        require(!_exists(tokenId), \"ERC721: token already minted\");\r\n\r\n        // Adding new address with the token id for minting\r\n        _tokenOwner[tokenId] = _to;\r\n\r\n        // Adding one to the count for each address that is miniting\r\n        _countOfTokenOwned[_to] += 1;\r\n\r\n        emit Transfer(address(0), _to, tokenId);\r\n    } \r\n}",
  "sourcePath": "C:\\Users\\LammyRu\\Projects\\NFT Project\\NFT Marketplace\\src\\contracts\\ERC721.sol",
  "compiler": {
    "name": "solc",
    "version": "0.8.12+commit.f00d7308.Emscripten.clang"
  },
  "schemaVersion": "3.4.5",
  "updatedAt": "2022-03-07T12:16:02.410Z",
  "devdoc": {
    "kind": "dev",
    "methods": {},
    "version": 1
  },
  "userdoc": {
    "kind": "user",
    "methods": {},
    "version": 1
  }
}