{
  "contractName": "ERC721Enumerable",
  "abi": [
    {
      "anonymous": false,
      "inputs": [
        {
          "indexed": true,
          "internalType": "address",
          "name": "_from",
          "type": "address"
        },
        {
          "indexed": true,
          "internalType": "address",
          "name": "_to",
          "type": "address"
        },
        {
          "indexed": true,
          "internalType": "uint256",
          "name": "_tokenId",
          "type": "uint256"
        }
      ],
      "name": "Transfer",
      "type": "event"
    },
    {
      "inputs": [
        {
          "internalType": "address",
          "name": "_owner",
          "type": "address"
        }
      ],
      "name": "balanceOf",
      "outputs": [
        {
          "internalType": "uint256",
          "name": "",
          "type": "uint256"
        }
      ],
      "stateMutability": "view",
      "type": "function"
    },
    {
      "inputs": [
        {
          "internalType": "uint256",
          "name": "tokenId",
          "type": "uint256"
        }
      ],
      "name": "ownerOf",
      "outputs": [
        {
          "internalType": "address",
          "name": "",
          "type": "address"
        }
      ],
      "stateMutability": "view",
      "type": "function"
    },
    {
      "inputs": [
        {
          "internalType": "address",
          "name": "_from",
          "type": "address"
        },
        {
          "internalType": "address",
          "name": "_to",
          "type": "address"
        },
        {
          "internalType": "uint256",
          "name": "_tokenId",
          "type": "uint256"
        }
      ],
      "name": "transferFrom",
      "outputs": [],
      "stateMutability": "nonpayable",
      "type": "function"
    },
    {
      "inputs": [
        {
          "internalType": "uint256",
          "name": "_index",
          "type": "uint256"
        }
      ],
      "name": "tokenByIndex",
      "outputs": [
        {
          "internalType": "uint256",
          "name": "",
          "type": "uint256"
        }
      ],
      "stateMutability": "view",
      "type": "function"
    },
    {
      "inputs": [
        {
          "internalType": "address",
          "name": "_owner",
          "type": "address"
        },
        {
          "internalType": "uint256",
          "name": "_index",
          "type": "uint256"
        }
      ],
      "name": "tokenOfOwnerByIndex",
      "outputs": [
        {
          "internalType": "uint256",
          "name": "",
          "type": "uint256"
        }
      ],
      "stateMutability": "view",
      "type": "function"
    },
    {
      "inputs": [],
      "name": "totalSupply",
      "outputs": [
        {
          "internalType": "uint256",
          "name": "",
          "type": "uint256"
        }
      ],
      "stateMutability": "view",
      "type": "function"
    }
  ],
  "bytecode": "0x608060405234801561001057600080fd5b5061071e806100206000396000f3fe608060405234801561001057600080fd5b50600436106100625760003560e01c806318160ddd1461006757806323b872dd1461007e5780632f745c59146100935780634f6ccce7146100a65780636352211e146100b957806370a08231146100e4575b600080fd5b6003545b6040519081526020015b60405180910390f35b61009161008c36600461056b565b6100f7565b005b61006b6100a13660046105ac565b610107565b61006b6100b43660046105d8565b610202565b6100cc6100c73660046105d8565b6102d9565b6040516001600160a01b039091168152602001610075565b61006b6100f23660046105f1565b610314565b610102838383610358565b505050565b6040516370a0823160e01b81526001600160a01b038316600482015260009030906370a0823190602401602060405180830381865afa15801561014e573d6000803e3d6000fd5b505050506040513d601f19601f820116820180604052508101906101729190610615565b82106101c55760405162461bcd60e51b815260206004820152601c60248201527f6f776e657220696e646578206973206f7574206f6620626f756e64730000000060448201526064015b60405180910390fd5b6001600160a01b03831660009081526005602052604090208054839081106101ef576101ef61062e565b9060005260206000200154905092915050565b6000306001600160a01b03166318160ddd6040518163ffffffff1660e01b8152600401602060405180830381865afa158015610242573d6000803e3d6000fd5b505050506040513d601f19601f820116820180604052508101906102669190610615565b82106102b45760405162461bcd60e51b815260206004820152601d60248201527f676c6f62616c20696e646578206973206f7574206f6620626f756e647300000060448201526064016101bc565b600382815481106102c7576102c761062e565b90600052602060002001549050919050565b6000818152602081905260408120546001600160a01b03168061030e5760405162461bcd60e51b81526004016101bc90610644565b92915050565b60006001600160a01b03821661033c5760405162461bcd60e51b81526004016101bc90610644565b506001600160a01b031660009081526001602052604090205490565b6001600160a01b0382166103ba5760405162461bcd60e51b815260206004820152602360248201527f455243373231205472616e7366657220746f20746865207a65726f206164647260448201526265737360e81b60648201526084016101bc565b6040516331a9108f60e11b8152600481018290526001600160a01b038416903090636352211e90602401602060405180830381865afa158015610401573d6000803e3d6000fd5b505050506040513d601f19601f820116820180604052508101906104259190610686565b6001600160a01b0316146104975760405162461bcd60e51b815260206004820152603360248201527f547279696e6720746f207472616e73666572206120746f6b656e20746865206160448201527232323932b9b9903237b2b9903737ba1037bbb760691b60648201526084016101bc565b6001600160a01b038316600090815260016020819052604082208054919290916104c29084906106b9565b90915550506001600160a01b038216600090815260016020819052604082208054919290916104f29084906106d0565b909155505060008181526020819052604080822080546001600160a01b0319166001600160a01b0386811691821790925591518493918716917fddf252ad1be2c89b69c2b068fc378daa952ba7f163c4a11628f55a4df523b3ef91a4505050565b6001600160a01b038116811461056857600080fd5b50565b60008060006060848603121561058057600080fd5b833561058b81610553565b9250602084013561059b81610553565b929592945050506040919091013590565b600080604083850312156105bf57600080fd5b82356105ca81610553565b946020939093013593505050565b6000602082840312156105ea57600080fd5b5035919050565b60006020828403121561060357600080fd5b813561060e81610553565b9392505050565b60006020828403121561062757600080fd5b5051919050565b634e487b7160e01b600052603260045260246000fd5b60208082526022908201527f6f776e657220717565727920666f72206e6f6e2d6578697374656e7420746f6b60408201526132b760f11b606082015260800190565b60006020828403121561069857600080fd5b815161060e81610553565b634e487b7160e01b600052601160045260246000fd5b6000828210156106cb576106cb6106a3565b500390565b600082198211156106e3576106e36106a3565b50019056fea26469706673582212204a8b9d13093f74d33d009a22bbba0b20cd1582cf9d910f11c4e4755c7c01ba5a64736f6c634300080c0033",
  "immutableReferences": {},
  "source": "// SPDX-License-Identifier: MIT\r\npragma solidity ^0.8.0;\r\n\r\nimport \"./ERC721.sol\";\r\n\r\ncontract ERC721Enumerable is ERC721 {\r\n\r\n    uint256[] private _allTokens;\r\n\r\n    // Mapping from tokenId to position in _allTokens array\r\n    mapping(uint256 => uint256) private _allTokensIndex;\r\n\r\n    // Mapping of owner to list of all owner token ids\r\n    mapping(address => uint256[]) private _ownedTokens;\r\n\r\n    // Mapping from token ID to index of the owner token list\r\n    mapping(uint256 => uint256) private _ownedTokensIndex;\r\n\r\n    // Add tokens to the _allTokens array and set the position of the token indexes\r\n    function _addTokensToAllTokenEnumeration(uint256 tokenId) private {\r\n        _allTokensIndex[tokenId] = _allTokens.length;\r\n        _allTokens.push(tokenId);\r\n    }\r\n\r\n    // Add tokens to the _ownedTokens owner address and set the positon of the owned token indexes \r\n    function _addTokenToOwnerEnumeration(address to, uint256 tokenId) private {\r\n        _ownedTokensIndex[tokenId] = _ownedTokens[to].length; \r\n        _ownedTokens[to].push(tokenId);\r\n    }\r\n\r\n    function tokenByIndex(uint256 _index) external view returns (uint256) {\r\n        // Make sure that the index is not out of bounds of the total supply\r\n        require(_index < this.totalSupply(), \"global index is out of bounds\");\r\n        return _allTokens[_index];\r\n    }\r\n    \r\n    function tokenOfOwnerByIndex(address _owner, uint256 _index) external view returns (uint256) {\r\n        require(_index < this.balanceOf(_owner), \"owner index is out of bounds\");\r\n        return _ownedTokens[_owner][_index];\r\n    } \r\n\r\n    // Return the total supply of the _allToken array\r\n    function totalSupply() public view returns(uint256) {\r\n        \r\n        return _allTokens.length;\r\n    }\r\n\r\n    function _mintToken(address to, uint256 tokenId) internal override (ERC721) {\r\n\r\n        super._mintToken(to, tokenId);\r\n\r\n        _addTokensToAllTokenEnumeration(tokenId);\r\n        _addTokenToOwnerEnumeration(to, tokenId);\r\n    }\r\n\r\n}",
  "sourcePath": "C:\\Users\\LammyRu\\Projects\\NFT Project\\NFT Marketplace\\src\\contracts\\ERC721Enumerable.sol",
  "compiler": {
    "name": "solc",
    "version": "0.8.12+commit.f00d7308.Emscripten.clang"
  },
  "schemaVersion": "3.4.5",
  "updatedAt": "2022-03-07T12:16:02.428Z",
  "devdoc": {
    "kind": "dev",
    "methods": {},
    "version": 1
  },
  "userdoc": {
    "kind": "user",
    "methods": {},
    "version": 1
  }
}