{
  "contractName": "KryptoHamster",
  "abi": [
    {
      "inputs": [],
      "stateMutability": "nonpayable",
      "type": "constructor"
    },
    {
      "anonymous": false,
      "inputs": [
        {
          "indexed": true,
          "internalType": "address",
          "name": "owner",
          "type": "address"
        },
        {
          "indexed": true,
          "internalType": "address",
          "name": "approved",
          "type": "address"
        },
        {
          "indexed": true,
          "internalType": "uint256",
          "name": "tokenId",
          "type": "uint256"
        }
      ],
      "name": "Approval",
      "type": "event"
    },
    {
      "anonymous": false,
      "inputs": [
        {
          "indexed": true,
          "internalType": "address",
          "name": "owner",
          "type": "address"
        },
        {
          "indexed": true,
          "internalType": "address",
          "name": "operator",
          "type": "address"
        },
        {
          "indexed": false,
          "internalType": "bool",
          "name": "approved",
          "type": "bool"
        }
      ],
      "name": "ApprovalForAll",
      "type": "event"
    },
    {
      "anonymous": false,
      "inputs": [
        {
          "indexed": true,
          "internalType": "address",
          "name": "from",
          "type": "address"
        },
        {
          "indexed": true,
          "internalType": "address",
          "name": "to",
          "type": "address"
        },
        {
          "indexed": true,
          "internalType": "uint256",
          "name": "tokenId",
          "type": "uint256"
        }
      ],
      "name": "Transfer",
      "type": "event"
    },
    {
      "inputs": [
        {
          "internalType": "address",
          "name": "to",
          "type": "address"
        },
        {
          "internalType": "uint256",
          "name": "tokenId",
          "type": "uint256"
        }
      ],
      "name": "approve",
      "outputs": [],
      "stateMutability": "nonpayable",
      "type": "function"
    },
    {
      "inputs": [
        {
          "internalType": "address",
          "name": "owner",
          "type": "address"
        }
      ],
      "name": "balanceOf",
      "outputs": [
        {
          "internalType": "uint256",
          "name": "",
          "type": "uint256"
        }
      ],
      "stateMutability": "view",
      "type": "function"
    },
    {
      "inputs": [
        {
          "internalType": "uint256",
          "name": "tokenId",
          "type": "uint256"
        }
      ],
      "name": "getApproved",
      "outputs": [
        {
          "internalType": "address",
          "name": "",
          "type": "address"
        }
      ],
      "stateMutability": "view",
      "type": "function"
    },
    {
      "inputs": [
        {
          "internalType": "address",
          "name": "owner",
          "type": "address"
        },
        {
          "internalType": "address",
          "name": "operator",
          "type": "address"
        }
      ],
      "name": "isApprovedForAll",
      "outputs": [
        {
          "internalType": "bool",
          "name": "",
          "type": "bool"
        }
      ],
      "stateMutability": "view",
      "type": "function"
    },
    {
      "inputs": [
        {
          "internalType": "uint256",
          "name": "",
          "type": "uint256"
        }
      ],
      "name": "kryptoHamsters",
      "outputs": [
        {
          "internalType": "string",
          "name": "",
          "type": "string"
        }
      ],
      "stateMutability": "view",
      "type": "function"
    },
    {
      "inputs": [],
      "name": "name",
      "outputs": [
        {
          "internalType": "string",
          "name": "",
          "type": "string"
        }
      ],
      "stateMutability": "view",
      "type": "function"
    },
    {
      "inputs": [
        {
          "internalType": "uint256",
          "name": "tokenId",
          "type": "uint256"
        }
      ],
      "name": "ownerOf",
      "outputs": [
        {
          "internalType": "address",
          "name": "",
          "type": "address"
        }
      ],
      "stateMutability": "view",
      "type": "function"
    },
    {
      "inputs": [
        {
          "internalType": "address",
          "name": "from",
          "type": "address"
        },
        {
          "internalType": "address",
          "name": "to",
          "type": "address"
        },
        {
          "internalType": "uint256",
          "name": "tokenId",
          "type": "uint256"
        }
      ],
      "name": "safeTransferFrom",
      "outputs": [],
      "stateMutability": "nonpayable",
      "type": "function"
    },
    {
      "inputs": [
        {
          "internalType": "address",
          "name": "from",
          "type": "address"
        },
        {
          "internalType": "address",
          "name": "to",
          "type": "address"
        },
        {
          "internalType": "uint256",
          "name": "tokenId",
          "type": "uint256"
        },
        {
          "internalType": "bytes",
          "name": "_data",
          "type": "bytes"
        }
      ],
      "name": "safeTransferFrom",
      "outputs": [],
      "stateMutability": "nonpayable",
      "type": "function"
    },
    {
      "inputs": [
        {
          "internalType": "address",
          "name": "operator",
          "type": "address"
        },
        {
          "internalType": "bool",
          "name": "approved",
          "type": "bool"
        }
      ],
      "name": "setApprovalForAll",
      "outputs": [],
      "stateMutability": "nonpayable",
      "type": "function"
    },
    {
      "inputs": [
        {
          "internalType": "bytes4",
          "name": "interfaceId",
          "type": "bytes4"
        }
      ],
      "name": "supportsInterface",
      "outputs": [
        {
          "internalType": "bool",
          "name": "",
          "type": "bool"
        }
      ],
      "stateMutability": "view",
      "type": "function"
    },
    {
      "inputs": [],
      "name": "symbol",
      "outputs": [
        {
          "internalType": "string",
          "name": "",
          "type": "string"
        }
      ],
      "stateMutability": "view",
      "type": "function"
    },
    {
      "inputs": [
        {
          "internalType": "uint256",
          "name": "index",
          "type": "uint256"
        }
      ],
      "name": "tokenByIndex",
      "outputs": [
        {
          "internalType": "uint256",
          "name": "",
          "type": "uint256"
        }
      ],
      "stateMutability": "view",
      "type": "function"
    },
    {
      "inputs": [
        {
          "internalType": "address",
          "name": "owner",
          "type": "address"
        },
        {
          "internalType": "uint256",
          "name": "index",
          "type": "uint256"
        }
      ],
      "name": "tokenOfOwnerByIndex",
      "outputs": [
        {
          "internalType": "uint256",
          "name": "",
          "type": "uint256"
        }
      ],
      "stateMutability": "view",
      "type": "function"
    },
    {
      "inputs": [
        {
          "internalType": "uint256",
          "name": "tokenId",
          "type": "uint256"
        }
      ],
      "name": "tokenURI",
      "outputs": [
        {
          "internalType": "string",
          "name": "",
          "type": "string"
        }
      ],
      "stateMutability": "view",
      "type": "function"
    },
    {
      "inputs": [],
      "name": "totalSupply",
      "outputs": [
        {
          "internalType": "uint256",
          "name": "",
          "type": "uint256"
        }
      ],
      "stateMutability": "view",
      "type": "function"
    },
    {
      "inputs": [
        {
          "internalType": "address",
          "name": "from",
          "type": "address"
        },
        {
          "internalType": "address",
          "name": "to",
          "type": "address"
        },
        {
          "internalType": "uint256",
          "name": "tokenId",
          "type": "uint256"
        }
      ],
      "name": "transferFrom",
      "outputs": [],
      "stateMutability": "nonpayable",
      "type": "function"
    },
    {
      "inputs": [
        {
          "internalType": "string",
          "name": "_kryptoHamster",
          "type": "string"
        }
      ],
      "name": "mint",
      "outputs": [],
      "stateMutability": "nonpayable",
      "type": "function"
    }
  ],
  "bytecode": "0x60806040523480156200001157600080fd5b50604080518082018252600d81526c25b93cb83a37a430b6b9ba32b960991b60208083019182528351808501909452600484526348414d4960e01b90840152815191929183918391620000679160009162000088565b5080516200007d90600190602084019062000088565b50505050506200016b565b82805462000096906200012e565b90600052602060002090601f016020900481019282620000ba576000855562000105565b82601f10620000d557805160ff191683800117855562000105565b8280016001018555821562000105579182015b8281111562000105578251825591602001919060010190620000e8565b506200011392915062000117565b5090565b5b8082111562000113576000815560010162000118565b600181811c908216806200014357607f821691505b602082108114156200016557634e487b7160e01b600052602260045260246000fd5b50919050565b611a9f806200017b6000396000f3fe608060405234801561001057600080fd5b50600436106101165760003560e01c80634f6ccce7116100a2578063a22cb46511610071578063a22cb46514610237578063b88d4fde1461024a578063c87b56dd1461025d578063d85d3d2714610270578063e985e9c51461028357600080fd5b80634f6ccce7146101f65780636352211e1461020957806370a082311461021c57806395d89b411461022f57600080fd5b806318160ddd116100e957806318160ddd14610198578063189fa5a1146101aa57806323b872dd146101bd5780632f745c59146101d057806342842e0e146101e357600080fd5b806301ffc9a71461011b57806306fdde0314610143578063081812fc14610158578063095ea7b314610183575b600080fd5b61012e61012936600461151e565b6102bf565b60405190151581526020015b60405180910390f35b61014b6102ea565b60405161013a9190611593565b61016b6101663660046115a6565b61037c565b6040516001600160a01b03909116815260200161013a565b6101966101913660046115db565b610416565b005b6008545b60405190815260200161013a565b61014b6101b83660046115a6565b61052c565b6101966101cb366004611605565b6105d8565b61019c6101de3660046115db565b610609565b6101966101f1366004611605565b61069f565b61019c6102043660046115a6565b6106ba565b61016b6102173660046115a6565b61074d565b61019c61022a366004611641565b6107c4565b61014b61084b565b61019661024536600461165c565b61085a565b610196610258366004611724565b61091f565b61014b61026b3660046115a6565b610957565b61019661027e3660046117a0565b610a3f565b61012e6102913660046117e9565b6001600160a01b03918216600090815260056020908152604080832093909416825291909152205460ff1690565b60006001600160e01b0319821663780e9d6360e01b14806102e457506102e482610b47565b92915050565b6060600080546102f99061181c565b80601f01602080910402602001604051908101604052809291908181526020018280546103259061181c565b80156103725780601f1061034757610100808354040283529160200191610372565b820191906000526020600020905b81548152906001019060200180831161035557829003601f168201915b5050505050905090565b6000818152600260205260408120546001600160a01b03166103fa5760405162461bcd60e51b815260206004820152602c60248201527f4552433732313a20617070726f76656420717565727920666f72206e6f6e657860448201526b34b9ba32b73a103a37b5b2b760a11b60648201526084015b60405180910390fd5b506000908152600460205260409020546001600160a01b031690565b60006104218261074d565b9050806001600160a01b0316836001600160a01b0316141561048f5760405162461bcd60e51b815260206004820152602160248201527f4552433732313a20617070726f76616c20746f2063757272656e74206f776e656044820152603960f91b60648201526084016103f1565b336001600160a01b03821614806104ab57506104ab8133610291565b61051d5760405162461bcd60e51b815260206004820152603860248201527f4552433732313a20617070726f76652063616c6c6572206973206e6f74206f7760448201527f6e6572206e6f7220617070726f76656420666f7220616c6c000000000000000060648201526084016103f1565b6105278383610b97565b505050565b600a818154811061053c57600080fd5b9060005260206000200160009150905080546105579061181c565b80601f01602080910402602001604051908101604052809291908181526020018280546105839061181c565b80156105d05780601f106105a5576101008083540402835291602001916105d0565b820191906000526020600020905b8154815290600101906020018083116105b357829003601f168201915b505050505081565b6105e23382610c05565b6105fe5760405162461bcd60e51b81526004016103f190611857565b610527838383610cfc565b6000610614836107c4565b82106106765760405162461bcd60e51b815260206004820152602b60248201527f455243373231456e756d657261626c653a206f776e657220696e646578206f7560448201526a74206f6620626f756e647360a81b60648201526084016103f1565b506001600160a01b03919091166000908152600660209081526040808320938352929052205490565b6105278383836040518060200160405280600081525061091f565b60006106c560085490565b82106107285760405162461bcd60e51b815260206004820152602c60248201527f455243373231456e756d657261626c653a20676c6f62616c20696e646578206f60448201526b7574206f6620626f756e647360a01b60648201526084016103f1565b6008828154811061073b5761073b6118a8565b90600052602060002001549050919050565b6000818152600260205260408120546001600160a01b0316806102e45760405162461bcd60e51b815260206004820152602960248201527f4552433732313a206f776e657220717565727920666f72206e6f6e657869737460448201526832b73a103a37b5b2b760b91b60648201526084016103f1565b60006001600160a01b03821661082f5760405162461bcd60e51b815260206004820152602a60248201527f4552433732313a2062616c616e636520717565727920666f7220746865207a65604482015269726f206164647265737360b01b60648201526084016103f1565b506001600160a01b031660009081526003602052604090205490565b6060600180546102f99061181c565b6001600160a01b0382163314156108b35760405162461bcd60e51b815260206004820152601960248201527f4552433732313a20617070726f766520746f2063616c6c65720000000000000060448201526064016103f1565b3360008181526005602090815260408083206001600160a01b03871680855290835292819020805460ff191686151590811790915590519081529192917f17307eab39ab6107e8899845ad3d59bd9653f200f220920489ca2b5937696c31910160405180910390a35050565b6109293383610c05565b6109455760405162461bcd60e51b81526004016103f190611857565b61095184848484610ea7565b50505050565b6000818152600260205260409020546060906001600160a01b03166109d65760405162461bcd60e51b815260206004820152602f60248201527f4552433732314d657461646174613a2055524920717565727920666f72206e6f60448201526e3732bc34b9ba32b73a103a37b5b2b760891b60648201526084016103f1565b60006109ed60408051602081019091526000815290565b90506000815111610a0d5760405180602001604052806000815250610a38565b80610a1784610eda565b604051602001610a289291906118be565b6040516020818303038152906040525b9392505050565b600b81604051610a4f91906118ed565b9081526040519081900360200190205460ff1615610aaf5760405162461bcd60e51b815260206004820152601c60248201527f6b727970746f48616d7374657220616c7265616479206578697374730000000060448201526064016103f1565b600a80546001810182556000919091528151610af2917fc65a7bb8d6351c1cf70c95a316cc6a92839c986682d98bc35f958f4883f9d2a80190602084019061146c565b50600a54600090610b059060019061191f565b9050610b113382610fd8565b6001600b83604051610b2391906118ed565b908152604051908190036020019020805491151560ff199092169190911790555050565b60006001600160e01b031982166380ac58cd60e01b1480610b7857506001600160e01b03198216635b5e139f60e01b145b806102e457506301ffc9a760e01b6001600160e01b03198316146102e4565b600081815260046020526040902080546001600160a01b0319166001600160a01b0384169081179091558190610bcc8261074d565b6001600160a01b03167f8c5be1e5ebec7d5bd14f71427d1e84f3dd0314c0f7b2291e5b200ac8c7c3b92560405160405180910390a45050565b6000818152600260205260408120546001600160a01b0316610c7e5760405162461bcd60e51b815260206004820152602c60248201527f4552433732313a206f70657261746f7220717565727920666f72206e6f6e657860448201526b34b9ba32b73a103a37b5b2b760a11b60648201526084016103f1565b6000610c898361074d565b9050806001600160a01b0316846001600160a01b03161480610cc45750836001600160a01b0316610cb98461037c565b6001600160a01b0316145b80610cf457506001600160a01b0380821660009081526005602090815260408083209388168352929052205460ff165b949350505050565b826001600160a01b0316610d0f8261074d565b6001600160a01b031614610d775760405162461bcd60e51b815260206004820152602960248201527f4552433732313a207472616e73666572206f6620746f6b656e2074686174206960448201526839903737ba1037bbb760b91b60648201526084016103f1565b6001600160a01b038216610dd95760405162461bcd60e51b8152602060048201526024808201527f4552433732313a207472616e7366657220746f20746865207a65726f206164646044820152637265737360e01b60648201526084016103f1565b610de4838383611126565b610def600082610b97565b6001600160a01b0383166000908152600360205260408120805460019290610e1890849061191f565b90915550506001600160a01b0382166000908152600360205260408120805460019290610e46908490611936565b909155505060008181526002602052604080822080546001600160a01b0319166001600160a01b0386811691821790925591518493918716917fddf252ad1be2c89b69c2b068fc378daa952ba7f163c4a11628f55a4df523b3ef91a4505050565b610eb2848484610cfc565b610ebe848484846111de565b6109515760405162461bcd60e51b81526004016103f19061194e565b606081610efe5750506040805180820190915260018152600360fc1b602082015290565b8160005b8115610f285780610f12816119a0565b9150610f219050600a836119d1565b9150610f02565b60008167ffffffffffffffff811115610f4357610f43611698565b6040519080825280601f01601f191660200182016040528015610f6d576020820181803683370190505b5090505b8415610cf457610f8260018361191f565b9150610f8f600a866119e5565b610f9a906030611936565b60f81b818381518110610faf57610faf6118a8565b60200101906001600160f81b031916908160001a905350610fd1600a866119d1565b9450610f71565b6001600160a01b03821661102e5760405162461bcd60e51b815260206004820181905260248201527f4552433732313a206d696e7420746f20746865207a65726f206164647265737360448201526064016103f1565b6000818152600260205260409020546001600160a01b0316156110935760405162461bcd60e51b815260206004820152601c60248201527f4552433732313a20746f6b656e20616c7265616479206d696e7465640000000060448201526064016103f1565b61109f60008383611126565b6001600160a01b03821660009081526003602052604081208054600192906110c8908490611936565b909155505060008181526002602052604080822080546001600160a01b0319166001600160a01b03861690811790915590518392907fddf252ad1be2c89b69c2b068fc378daa952ba7f163c4a11628f55a4df523b3ef908290a45050565b6001600160a01b0383166111815761117c81600880546000838152600960205260408120829055600182018355919091527ff3f7a9fe364faab93b216da50a3214154f22a0a2b415b23a84c8169e8b636ee30155565b6111a4565b816001600160a01b0316836001600160a01b0316146111a4576111a483826112dc565b6001600160a01b0382166111bb5761052781611379565b826001600160a01b0316826001600160a01b031614610527576105278282611428565b60006001600160a01b0384163b156112d157604051630a85bd0160e11b81526001600160a01b0385169063150b7a02906112229033908990889088906004016119f9565b6020604051808303816000875af192505050801561125d575060408051601f3d908101601f1916820190925261125a91810190611a36565b60015b6112b7573d80801561128b576040519150601f19603f3d011682016040523d82523d6000602084013e611290565b606091505b5080516112af5760405162461bcd60e51b81526004016103f19061194e565b805181602001fd5b6001600160e01b031916630a85bd0160e11b149050610cf4565b506001949350505050565b600060016112e9846107c4565b6112f3919061191f565b600083815260076020526040902054909150808214611346576001600160a01b03841660009081526006602090815260408083208584528252808320548484528184208190558352600790915290208190555b5060009182526007602090815260408084208490556001600160a01b039094168352600681528383209183525290812055565b60085460009061138b9060019061191f565b600083815260096020526040812054600880549394509092849081106113b3576113b36118a8565b9060005260206000200154905080600883815481106113d4576113d46118a8565b600091825260208083209091019290925582815260099091526040808220849055858252812055600880548061140c5761140c611a53565b6001900381819060005260206000200160009055905550505050565b6000611433836107c4565b6001600160a01b039093166000908152600660209081526040808320868452825280832085905593825260079052919091209190915550565b8280546114789061181c565b90600052602060002090601f01602090048101928261149a57600085556114e0565b82601f106114b357805160ff19168380011785556114e0565b828001600101855582156114e0579182015b828111156114e05782518255916020019190600101906114c5565b506114ec9291506114f0565b5090565b5b808211156114ec57600081556001016114f1565b6001600160e01b03198116811461151b57600080fd5b50565b60006020828403121561153057600080fd5b8135610a3881611505565b60005b8381101561155657818101518382015260200161153e565b838111156109515750506000910152565b6000815180845261157f81602086016020860161153b565b601f01601f19169290920160200192915050565b602081526000610a386020830184611567565b6000602082840312156115b857600080fd5b5035919050565b80356001600160a01b03811681146115d657600080fd5b919050565b600080604083850312156115ee57600080fd5b6115f7836115bf565b946020939093013593505050565b60008060006060848603121561161a57600080fd5b611623846115bf565b9250611631602085016115bf565b9150604084013590509250925092565b60006020828403121561165357600080fd5b610a38826115bf565b6000806040838503121561166f57600080fd5b611678836115bf565b91506020830135801515811461168d57600080fd5b809150509250929050565b634e487b7160e01b600052604160045260246000fd5b600067ffffffffffffffff808411156116c9576116c9611698565b604051601f8501601f19908116603f011681019082821181831017156116f1576116f1611698565b8160405280935085815286868601111561170a57600080fd5b858560208301376000602087830101525050509392505050565b6000806000806080858703121561173a57600080fd5b611743856115bf565b9350611751602086016115bf565b925060408501359150606085013567ffffffffffffffff81111561177457600080fd5b8501601f8101871361178557600080fd5b611794878235602084016116ae565b91505092959194509250565b6000602082840312156117b257600080fd5b813567ffffffffffffffff8111156117c957600080fd5b8201601f810184136117da57600080fd5b610cf4848235602084016116ae565b600080604083850312156117fc57600080fd5b611805836115bf565b9150611813602084016115bf565b90509250929050565b600181811c9082168061183057607f821691505b6020821081141561185157634e487b7160e01b600052602260045260246000fd5b50919050565b60208082526031908201527f4552433732313a207472616e736665722063616c6c6572206973206e6f74206f6040820152701ddb995c881b9bdc88185c1c1c9bdd9959607a1b606082015260800190565b634e487b7160e01b600052603260045260246000fd5b600083516118d081846020880161153b565b8351908301906118e481836020880161153b565b01949350505050565b600082516118ff81846020870161153b565b9190910192915050565b634e487b7160e01b600052601160045260246000fd5b60008282101561193157611931611909565b500390565b6000821982111561194957611949611909565b500190565b60208082526032908201527f4552433732313a207472616e7366657220746f206e6f6e20455243373231526560408201527131b2b4bb32b91034b6b83632b6b2b73a32b960711b606082015260800190565b60006000198214156119b4576119b4611909565b5060010190565b634e487b7160e01b600052601260045260246000fd5b6000826119e0576119e06119bb565b500490565b6000826119f4576119f46119bb565b500690565b6001600160a01b0385811682528416602082015260408101839052608060608201819052600090611a2c90830184611567565b9695505050505050565b600060208284031215611a4857600080fd5b8151610a3881611505565b634e487b7160e01b600052603160045260246000fdfea2646970667358221220fb792beac3fe237c44431d2b0a6b7651bba5fcf4a88e728804cf077b0a2c159e64736f6c634300080c0033",
  "immutableReferences": {},
  "source": "// SPDX-License-Identifier: MIT\r\npragma solidity ^0.8.0;\r\n\r\nimport \"./ERC721Connector.sol\";\r\n\r\ncontract KryptoHamster is ERC721Connector {\r\n\r\n    constructor() ERC721Connector(\"KryptoHamster\",\"HAMI\") {}\r\n    \r\n\r\n    // Array to store our NFTs\r\n    string[] public kryptoHamsters;\r\n\r\n    // Keep tracks if the token already exists\r\n    mapping(string => bool) _doesExists;\r\n\r\n    function mint(string memory _kryptoHamster) public {\r\n\r\n        // Requires that the token does not already exist\r\n        require(!_doesExists[_kryptoHamster], \"kryptoHamster already exists\");\r\n\r\n        // Push the token to be minted in the array\r\n        kryptoHamsters.push(_kryptoHamster);\r\n\r\n        // Get the latest index of the array and set it as the id\r\n        uint _id = kryptoHamsters.length - 1;\r\n\r\n        // Mint ERC721 Token \r\n        _mint(msg.sender, _id);\r\n\r\n        // Set doesExists true for the token\r\n        _doesExists[_kryptoHamster] = true;\r\n    }\r\n}\r\n",
  "sourcePath": "C:\\Users\\LammyRu\\Projects\\NFT Project\\NFT Marketplace\\src\\contracts\\KryptoHamster.sol",
  "compiler": {
    "name": "solc",
    "version": "0.8.12+commit.f00d7308.Emscripten.clang"
  },
  "schemaVersion": "3.4.5",
  "updatedAt": "2022-03-08T13:55:35.471Z",
  "devdoc": {
    "kind": "dev",
    "methods": {
      "approve(address,uint256)": {
        "details": "Gives permission to `to` to transfer `tokenId` token to another account. The approval is cleared when the token is transferred. Only a single account can be approved at a time, so approving the zero address clears previous approvals. Requirements: - The caller must own the token or be an approved operator. - `tokenId` must exist. Emits an {Approval} event."
      },
      "balanceOf(address)": {
        "details": "Returns the number of tokens in ``owner``'s account."
      },
      "getApproved(uint256)": {
        "details": "Returns the account approved for `tokenId` token. Requirements: - `tokenId` must exist."
      },
      "isApprovedForAll(address,address)": {
        "details": "Returns if the `operator` is allowed to manage all of the assets of `owner`. See {setApprovalForAll}"
      },
      "name()": {
        "details": "Returns the token collection name."
      },
      "ownerOf(uint256)": {
        "details": "Returns the owner of the `tokenId` token. Requirements: - `tokenId` must exist."
      },
      "safeTransferFrom(address,address,uint256)": {
        "details": "Safely transfers `tokenId` token from `from` to `to`, checking first that contract recipients are aware of the ERC721 protocol to prevent tokens from being forever locked. Requirements: - `from` cannot be the zero address. - `to` cannot be the zero address. - `tokenId` token must exist and be owned by `from`. - If the caller is not `from`, it must be have been allowed to move this token by either {approve} or {setApprovalForAll}. - If `to` refers to a smart contract, it must implement {IERC721Receiver-onERC721Received}, which is called upon a safe transfer. Emits a {Transfer} event."
      },
      "supportsInterface(bytes4)": {
        "details": "See {IERC165-supportsInterface}."
      },
      "symbol()": {
        "details": "Returns the token collection symbol."
      },
      "tokenByIndex(uint256)": {
        "details": "See {IERC721Enumerable-tokenByIndex}."
      },
      "tokenOfOwnerByIndex(address,uint256)": {
        "details": "See {IERC721Enumerable-tokenOfOwnerByIndex}."
      },
      "totalSupply()": {
        "details": "See {IERC721Enumerable-totalSupply}."
      },
      "transferFrom(address,address,uint256)": {
        "details": "Transfers `tokenId` token from `from` to `to`. WARNING: Usage of this method is discouraged, use {safeTransferFrom} whenever possible. Requirements: - `from` cannot be the zero address. - `to` cannot be the zero address. - `tokenId` token must be owned by `from`. - If the caller is not `from`, it must be approved to move this token by either {approve} or {setApprovalForAll}. Emits a {Transfer} event."
      }
    },
    "version": 1
  },
  "userdoc": {
    "kind": "user",
    "methods": {},
    "version": 1
  }
}