{
  "contractName": "KryptoHamster",
  "abi": [
    {
      "inputs": [],
      "stateMutability": "nonpayable",
      "type": "constructor"
    },
    {
      "inputs": [],
      "name": "name",
      "outputs": [
        {
          "internalType": "string",
          "name": "",
          "type": "string"
        }
      ],
      "stateMutability": "view",
      "type": "function",
      "constant": true
    },
    {
      "inputs": [],
      "name": "symbol",
      "outputs": [
        {
          "internalType": "string",
          "name": "",
          "type": "string"
        }
      ],
      "stateMutability": "view",
      "type": "function",
      "constant": true
    }
  ],
  "bytecode": "0x608060405234801561001057600080fd5b5060408051808201909152600c8082526b4b727970746f2048616d6d7960a01b602090920191825261004491600091610076565b506040805180820190915260048082526348414d4960e01b602090920191825261007091600191610076565b5061014a565b8280546100829061010f565b90600052602060002090601f0160209004810192826100a457600085556100ea565b82601f106100bd57805160ff19168380011785556100ea565b828001600101855582156100ea579182015b828111156100ea5782518255916020019190600101906100cf565b506100f69291506100fa565b5090565b5b808211156100f657600081556001016100fb565b600181811c9082168061012357607f821691505b6020821081141561014457634e487b7160e01b600052602260045260246000fd5b50919050565b6101c2806101596000396000f3fe608060405234801561001057600080fd5b50600436106100365760003560e01c806306fdde031461003b57806395d89b4114610059575b600080fd5b610043610061565b60405161005091906100fc565b60405180910390f35b6100436100ef565b6000805461006e90610151565b80601f016020809104026020016040519081016040528092919081815260200182805461009a90610151565b80156100e75780601f106100bc576101008083540402835291602001916100e7565b820191906000526020600020905b8154815290600101906020018083116100ca57829003601f168201915b505050505081565b6001805461006e90610151565b600060208083528351808285015260005b818110156101295785810183015185820160400152820161010d565b8181111561013b576000604083870101525b50601f01601f1916929092016040019392505050565b600181811c9082168061016557607f821691505b6020821081141561018657634e487b7160e01b600052602260045260246000fd5b5091905056fea2646970667358221220d26ef181f2b65213753d0ba86fb610be843318184fb5bcb554b2d88c7770c2e864736f6c634300080c0033",
  "immutableReferences": {},
  "source": "// SPDX-License-Identifier: MIT\r\npragma solidity ^0.8.0;\r\n\r\ncontract KryptoHamster {\r\n\r\n    string public name;\r\n    string public symbol;\r\n\r\n    constructor () {\r\n        name = \"Krypto Hammy\";\r\n        symbol = \"HAMI\";\r\n    }\r\n}\r\n",
  "sourcePath": "C:\\Users\\LammyRu\\Projects\\NFT Project\\NFT Marketplace\\src\\contracts\\KryptoHamster.sol",
  "compiler": {
    "name": "solc",
    "version": "0.8.12+commit.f00d7308.Emscripten.clang"
  },
  "schemaVersion": "3.4.5",
  "updatedAt": "2022-03-05T22:12:26.355Z",
  "networkType": "ethereum",
  "devdoc": {
    "kind": "dev",
    "methods": {},
    "version": 1
  },
  "userdoc": {
    "kind": "user",
    "methods": {},
    "version": 1
  }
}