{
  "contractName": "KryptoHamster",
  "abi": [
    {
      "inputs": [],
      "stateMutability": "nonpayable",
      "type": "constructor"
    },
    {
      "inputs": [],
      "name": "getName",
      "outputs": [
        {
          "internalType": "string",
          "name": "",
          "type": "string"
        }
      ],
      "stateMutability": "view",
      "type": "function",
      "constant": true
    },
    {
      "inputs": [],
      "name": "getSymbol",
      "outputs": [
        {
          "internalType": "string",
          "name": "",
          "type": "string"
        }
      ],
      "stateMutability": "view",
      "type": "function",
      "constant": true
    }
  ],
  "bytecode": "0x608060405234801561001057600080fd5b50604080518082018252600d81526c25b93cb83a37a430b6b9ba32b960991b60208083019182528351808501909452600484526348414d4960e01b9084015281519192918391839161006491600091610082565b508051610078906001906020840190610082565b5050505050610156565b82805461008e9061011b565b90600052602060002090601f0160209004810192826100b057600085556100f6565b82601f106100c957805160ff19168380011785556100f6565b828001600101855582156100f6579182015b828111156100f65782518255916020019190600101906100db565b50610102929150610106565b5090565b5b808211156101025760008155600101610107565b600181811c9082168061012f57607f821691505b6020821081141561015057634e487b7160e01b600052602260045260246000fd5b50919050565b6101c8806101656000396000f3fe608060405234801561001057600080fd5b50600436106100365760003560e01c8063150704011461003b57806317d7de7c14610059575b600080fd5b610043610061565b6040516100509190610102565b60405180910390f35b6100436100f3565b60606001805461007090610157565b80601f016020809104026020016040519081016040528092919081815260200182805461009c90610157565b80156100e95780601f106100be576101008083540402835291602001916100e9565b820191906000526020600020905b8154815290600101906020018083116100cc57829003601f168201915b5050505050905090565b60606000805461007090610157565b600060208083528351808285015260005b8181101561012f57858101830151858201604001528201610113565b81811115610141576000604083870101525b50601f01601f1916929092016040019392505050565b600181811c9082168061016b57607f821691505b6020821081141561018c57634e487b7160e01b600052602260045260246000fd5b5091905056fea2646970667358221220c08b8349698889cafc06af4c00091bd68a81707eaabc5a698895424cc11ba2e964736f6c634300080c0033",
  "immutableReferences": {},
  "source": "// SPDX-License-Identifier: MIT\r\npragma solidity ^0.8.0;\r\n\r\nimport \"./ERC721Connector.sol\";\r\n\r\ncontract KryptoHamster is ERC721Connector {\r\n\r\n    constructor() ERC721Connector(\"KryptoHamster\",\"HAMI\") {\r\n        \r\n    }\r\n}\r\n",
  "sourcePath": "C:\\Users\\LammyRu\\Projects\\NFT Project\\NFT Marketplace\\src\\contracts\\KryptoHamster.sol",
  "compiler": {
    "name": "solc",
    "version": "0.8.12+commit.f00d7308.Emscripten.clang"
  },
  "schemaVersion": "3.4.5",
  "updatedAt": "2022-03-05T23:17:50.919Z",
  "networkType": "ethereum",
  "devdoc": {
    "kind": "dev",
    "methods": {},
    "version": 1
  },
  "userdoc": {
    "kind": "user",
    "methods": {},
    "version": 1
  }
}