{
  "contractName": "KryptoHamster",
  "abi": [
    {
      "inputs": [],
      "stateMutability": "nonpayable",
      "type": "constructor"
    },
    {
      "anonymous": false,
      "inputs": [
        {
          "indexed": true,
          "internalType": "address",
          "name": "mintedFrom",
          "type": "address"
        },
        {
          "indexed": true,
          "internalType": "address",
          "name": "mintedTo",
          "type": "address"
        },
        {
          "indexed": true,
          "internalType": "uint256",
          "name": "mintedTokenId",
          "type": "uint256"
        }
      ],
      "name": "tokenMinted",
      "type": "event"
    },
    {
      "inputs": [],
      "name": "getName",
      "outputs": [
        {
          "internalType": "string",
          "name": "",
          "type": "string"
        }
      ],
      "stateMutability": "view",
      "type": "function",
      "constant": true
    },
    {
      "inputs": [],
      "name": "getSymbol",
      "outputs": [
        {
          "internalType": "string",
          "name": "",
          "type": "string"
        }
      ],
      "stateMutability": "view",
      "type": "function",
      "constant": true
    },
    {
      "inputs": [
        {
          "internalType": "uint256",
          "name": "",
          "type": "uint256"
        }
      ],
      "name": "kryptoHamsters",
      "outputs": [
        {
          "internalType": "string",
          "name": "",
          "type": "string"
        }
      ],
      "stateMutability": "view",
      "type": "function",
      "constant": true
    },
    {
      "inputs": [
        {
          "internalType": "string",
          "name": "_kryptoHamster",
          "type": "string"
        }
      ],
      "name": "mint",
      "outputs": [],
      "stateMutability": "nonpayable",
      "type": "function"
    }
  ],
  "bytecode": "0x608060405234801561001057600080fd5b50604080518082018252600d81526c25b93cb83a37a430b6b9ba32b960991b60208083019182528351808501909452600484526348414d4960e01b9084015281519192918391839161006491600091610082565b508051610078906001906020840190610082565b5050505050610156565b82805461008e9061011b565b90600052602060002090601f0160209004810192826100b057600085556100f6565b82601f106100c957805160ff19168380011785556100f6565b828001600101855582156100f6579182015b828111156100f65782518255916020019190600101906100db565b50610102929150610106565b5090565b5b808211156101025760008155600101610107565b600181811c9082168061012f57607f821691505b6020821081141561015057634e487b7160e01b600052602260045260246000fd5b50919050565b6106ea806101656000396000f3fe608060405234801561001057600080fd5b506004361061004c5760003560e01c8063150704011461005157806317d7de7c1461006f578063189fa5a114610077578063d85d3d271461008a575b600080fd5b61005961009f565b6040516100669190610505565b60405180910390f35b610059610131565b610059610085366004610538565b610140565b61009d610098366004610567565b6101ec565b005b6060600180546100ae90610618565b80601f01602080910402602001604051908101604052809291908181526020018280546100da90610618565b80156101275780601f106100fc57610100808354040283529160200191610127565b820191906000526020600020905b81548152906001019060200180831161010a57829003601f168201915b5050505050905090565b6060600080546100ae90610618565b6004818154811061015057600080fd5b90600052602060002001600091509050805461016b90610618565b80601f016020809104026020016040519081016040528092919081815260200182805461019790610618565b80156101e45780601f106101b9576101008083540402835291602001916101e4565b820191906000526020600020905b8154815290600101906020018083116101c757829003601f168201915b505050505081565b6005816040516101fc9190610653565b9081526040519081900360200190205460ff16156102615760405162461bcd60e51b815260206004820152601c60248201527f6b727970746f48616d7374657220616c7265616479206578697374730000000060448201526064015b60405180910390fd5b6004805460018101825560009190915281516102a4917f8a35acfbc15ff81a39ae7d344fd709f28e8600b4aa8c65c6b64bfe7fe36bd19b0190602084019061043c565b506004546000906102b790600190610685565b90506102c333826102f9565b60016005836040516102d59190610653565b908152604051908190036020019020805491151560ff199092169190911790555050565b6001600160a01b03821661034f5760405162461bcd60e51b815260206004820152601e60248201527f4552433732313a206d696e74656420746f207a65726f206164647265737300006044820152606401610258565b6000818152600260205260409020546001600160a01b0316156103b45760405162461bcd60e51b815260206004820152601c60248201527f4552433732313a20746f6b656e20616c7265616479206d696e746564000000006044820152606401610258565b600081815260026020908152604080832080546001600160a01b0319166001600160a01b0387169081179091558352600390915281208054600192906103fb90849061069c565b909155505060405181906001600160a01b038416906000907f7af4559a9f15cdd8e3314ffa569e8a722dcba98677e213e350fcda98ff3702a6908290a45050565b82805461044890610618565b90600052602060002090601f01602090048101928261046a57600085556104b0565b82601f1061048357805160ff19168380011785556104b0565b828001600101855582156104b0579182015b828111156104b0578251825591602001919060010190610495565b506104bc9291506104c0565b5090565b5b808211156104bc57600081556001016104c1565b60005b838110156104f05781810151838201526020016104d8565b838111156104ff576000848401525b50505050565b60208152600082518060208401526105248160408501602087016104d5565b601f01601f19169190910160400192915050565b60006020828403121561054a57600080fd5b5035919050565b634e487b7160e01b600052604160045260246000fd5b60006020828403121561057957600080fd5b813567ffffffffffffffff8082111561059157600080fd5b818401915084601f8301126105a557600080fd5b8135818111156105b7576105b7610551565b604051601f8201601f19908116603f011681019083821181831017156105df576105df610551565b816040528281528760208487010111156105f857600080fd5b826020860160208301376000928101602001929092525095945050505050565b600181811c9082168061062c57607f821691505b6020821081141561064d57634e487b7160e01b600052602260045260246000fd5b50919050565b600082516106658184602087016104d5565b9190910192915050565b634e487b7160e01b600052601160045260246000fd5b6000828210156106975761069761066f565b500390565b600082198211156106af576106af61066f565b50019056fea2646970667358221220b005275ba64ae18196886bd9f30e4ac192108ee22ee77167dc0bc4a706d1ff3a64736f6c634300080c0033",
  "immutableReferences": {},
  "source": "// SPDX-License-Identifier: MIT\r\npragma solidity ^0.8.0;\r\n\r\nimport \"./ERC721Connector.sol\";\r\n\r\ncontract KryptoHamster is ERC721Connector {\r\n\r\n    constructor() ERC721Connector(\"KryptoHamster\",\"HAMI\") {}\r\n    \r\n\r\n    // Array to store our NFTs\r\n    string[] public kryptoHamsters;\r\n\r\n    // Keep tracks if the token already exists\r\n    mapping(string => bool) _doesExists;\r\n\r\n    function mint(string memory _kryptoHamster) public {\r\n\r\n        // Requires that the token does not already exist\r\n        require(!_doesExists[_kryptoHamster], \"kryptoHamster already exists\");\r\n\r\n        // Push the token to be minted in the array\r\n        kryptoHamsters.push(_kryptoHamster);\r\n\r\n        // Get the latest index of the array and set it as the id\r\n        uint _id = kryptoHamsters.length - 1;\r\n\r\n        // Mint ERC721 Token \r\n        _mintToken(msg.sender, _id);\r\n\r\n        // Set doesExists true for the token\r\n        _doesExists[_kryptoHamster] = true;\r\n    }\r\n}\r\n",
  "sourcePath": "C:\\Users\\LammyRu\\Projects\\NFT Project\\NFT Marketplace\\src\\contracts\\KryptoHamster.sol",
  "compiler": {
    "name": "solc",
    "version": "0.8.12+commit.f00d7308.Emscripten.clang"
  },
  "schemaVersion": "3.4.5",
  "updatedAt": "2022-03-06T01:02:24.485Z",
  "networkType": "ethereum",
  "devdoc": {
    "kind": "dev",
    "methods": {},
    "version": 1
  },
  "userdoc": {
    "kind": "user",
    "methods": {},
    "version": 1
  }
}