{
  "contractName": "KryptoHamster",
  "abi": [
    {
      "inputs": [],
      "stateMutability": "nonpayable",
      "type": "constructor"
    },
    {
      "anonymous": false,
      "inputs": [
        {
          "indexed": true,
          "internalType": "address",
          "name": "owner",
          "type": "address"
        },
        {
          "indexed": true,
          "internalType": "address",
          "name": "approved",
          "type": "address"
        },
        {
          "indexed": true,
          "internalType": "uint256",
          "name": "tokenId",
          "type": "uint256"
        }
      ],
      "name": "Approval",
      "type": "event"
    },
    {
      "anonymous": false,
      "inputs": [
        {
          "indexed": true,
          "internalType": "address",
          "name": "owner",
          "type": "address"
        },
        {
          "indexed": true,
          "internalType": "address",
          "name": "operator",
          "type": "address"
        },
        {
          "indexed": false,
          "internalType": "bool",
          "name": "approved",
          "type": "bool"
        }
      ],
      "name": "ApprovalForAll",
      "type": "event"
    },
    {
      "anonymous": false,
      "inputs": [
        {
          "indexed": true,
          "internalType": "address",
          "name": "from",
          "type": "address"
        },
        {
          "indexed": true,
          "internalType": "address",
          "name": "to",
          "type": "address"
        },
        {
          "indexed": true,
          "internalType": "uint256",
          "name": "tokenId",
          "type": "uint256"
        }
      ],
      "name": "Transfer",
      "type": "event"
    },
    {
      "inputs": [
        {
          "internalType": "address",
          "name": "to",
          "type": "address"
        },
        {
          "internalType": "uint256",
          "name": "tokenId",
          "type": "uint256"
        }
      ],
      "name": "approve",
      "outputs": [],
      "stateMutability": "nonpayable",
      "type": "function"
    },
    {
      "inputs": [
        {
          "internalType": "address",
          "name": "owner",
          "type": "address"
        }
      ],
      "name": "balanceOf",
      "outputs": [
        {
          "internalType": "uint256",
          "name": "",
          "type": "uint256"
        }
      ],
      "stateMutability": "view",
      "type": "function",
      "constant": true
    },
    {
      "inputs": [
        {
          "internalType": "uint256",
          "name": "tokenId",
          "type": "uint256"
        }
      ],
      "name": "getApproved",
      "outputs": [
        {
          "internalType": "address",
          "name": "",
          "type": "address"
        }
      ],
      "stateMutability": "view",
      "type": "function",
      "constant": true
    },
    {
      "inputs": [
        {
          "internalType": "address",
          "name": "owner",
          "type": "address"
        },
        {
          "internalType": "address",
          "name": "operator",
          "type": "address"
        }
      ],
      "name": "isApprovedForAll",
      "outputs": [
        {
          "internalType": "bool",
          "name": "",
          "type": "bool"
        }
      ],
      "stateMutability": "view",
      "type": "function",
      "constant": true
    },
    {
      "inputs": [
        {
          "internalType": "uint256",
          "name": "",
          "type": "uint256"
        }
      ],
      "name": "kryptoHamsters",
      "outputs": [
        {
          "internalType": "string",
          "name": "",
          "type": "string"
        }
      ],
      "stateMutability": "view",
      "type": "function",
      "constant": true
    },
    {
      "inputs": [],
      "name": "name",
      "outputs": [
        {
          "internalType": "string",
          "name": "",
          "type": "string"
        }
      ],
      "stateMutability": "view",
      "type": "function",
      "constant": true
    },
    {
      "inputs": [
        {
          "internalType": "uint256",
          "name": "tokenId",
          "type": "uint256"
        }
      ],
      "name": "ownerOf",
      "outputs": [
        {
          "internalType": "address",
          "name": "",
          "type": "address"
        }
      ],
      "stateMutability": "view",
      "type": "function",
      "constant": true
    },
    {
      "inputs": [
        {
          "internalType": "address",
          "name": "operator",
          "type": "address"
        },
        {
          "internalType": "bool",
          "name": "approved",
          "type": "bool"
        }
      ],
      "name": "setApprovalForAll",
      "outputs": [],
      "stateMutability": "nonpayable",
      "type": "function"
    },
    {
      "inputs": [
        {
          "internalType": "bytes4",
          "name": "interfaceId",
          "type": "bytes4"
        }
      ],
      "name": "supportsInterface",
      "outputs": [
        {
          "internalType": "bool",
          "name": "",
          "type": "bool"
        }
      ],
      "stateMutability": "view",
      "type": "function",
      "constant": true
    },
    {
      "inputs": [],
      "name": "symbol",
      "outputs": [
        {
          "internalType": "string",
          "name": "",
          "type": "string"
        }
      ],
      "stateMutability": "view",
      "type": "function",
      "constant": true
    },
    {
      "inputs": [
        {
          "internalType": "uint256",
          "name": "index",
          "type": "uint256"
        }
      ],
      "name": "tokenByIndex",
      "outputs": [
        {
          "internalType": "uint256",
          "name": "",
          "type": "uint256"
        }
      ],
      "stateMutability": "view",
      "type": "function",
      "constant": true
    },
    {
      "inputs": [
        {
          "internalType": "address",
          "name": "owner",
          "type": "address"
        },
        {
          "internalType": "uint256",
          "name": "index",
          "type": "uint256"
        }
      ],
      "name": "tokenOfOwnerByIndex",
      "outputs": [
        {
          "internalType": "uint256",
          "name": "",
          "type": "uint256"
        }
      ],
      "stateMutability": "view",
      "type": "function",
      "constant": true
    },
    {
      "inputs": [],
      "name": "totalSupply",
      "outputs": [
        {
          "internalType": "uint256",
          "name": "",
          "type": "uint256"
        }
      ],
      "stateMutability": "view",
      "type": "function",
      "constant": true
    },
    {
      "inputs": [
        {
          "internalType": "address",
          "name": "from",
          "type": "address"
        },
        {
          "internalType": "address",
          "name": "to",
          "type": "address"
        },
        {
          "internalType": "uint256",
          "name": "tokenId",
          "type": "uint256"
        }
      ],
      "name": "transferFrom",
      "outputs": [],
      "stateMutability": "nonpayable",
      "type": "function"
    },
    {
      "inputs": [
        {
          "internalType": "string",
          "name": "_kryptoHamster",
          "type": "string"
        }
      ],
      "name": "mint",
      "outputs": [],
      "stateMutability": "nonpayable",
      "type": "function"
    },
    {
      "inputs": [
        {
          "internalType": "uint256",
          "name": "tokenId",
          "type": "uint256"
        }
      ],
      "name": "burn",
      "outputs": [],
      "stateMutability": "nonpayable",
      "type": "function"
    }
  ],
  "bytecode": "0x60806040523480156200001157600080fd5b50604080518082018252600d81526c25b93cb83a37a430b6b9ba32b960991b6020808301919091528251808401909352600483526348414d4960e01b908301529081816200007f7f92d8a794d910422f7549620ed7a8f75c2c42d18032da05c61ed89586344e965e6200011d565b600180546001600160a01b03191633179055620000bc7f2aa3f4710f58b303977da296b62cadae054c8971d883298d8ed6c6c0565c13c16200011d565b620000e77f6c5b7360b116f8fd1d2a1ccb905de5c6a9e91e31b88b8db3cd997e184f357e9f6200011d565b8151620000fc90600a906020850190620001a1565b5080516200011290600b906020840190620001a1565b505050505062000284565b6001600160e01b031980821614156200017c5760405162461bcd60e51b815260206004820152601960248201527f496e76616c696420696e74657266616365207265717565737400000000000000604482015260640160405180910390fd5b6001600160e01b0319166000908152602081905260409020805460ff19166001179055565b828054620001af9062000247565b90600052602060002090601f016020900481019282620001d357600085556200021e565b82601f10620001ee57805160ff19168380011785556200021e565b828001600101855582156200021e579182015b828111156200021e57825182559160200191906001019062000201565b506200022c92915062000230565b5090565b5b808211156200022c576000815560010162000231565b600181811c908216806200025c57607f821691505b602082108114156200027e57634e487b7160e01b600052602260045260246000fd5b50919050565b6119a380620002946000396000f3fe608060405234801561001057600080fd5b50600436106101005760003560e01c806342966c681161009757806395d89b411161006657806395d89b411461022a578063a22cb46514610232578063d85d3d2714610245578063e985e9c51461025857600080fd5b806342966c68146101de5780634f6ccce7146101f15780636352211e1461020457806370a082311461021757600080fd5b806318160ddd116100d357806318160ddd14610193578063189fa5a1146101a557806323b872dd146101b85780632f745c59146101cb57600080fd5b806301ffc9a71461010557806306fdde031461013e578063081812fc14610153578063095ea7b31461017e575b600080fd5b610129610113366004611609565b6001600160e01b0319166301ffc9a760e01b1490565b60405190151581526020015b60405180910390f35b610146610294565b604051610135919061166a565b61016661016136600461169d565b610326565b6040516001600160a01b039091168152602001610135565b61019161018c3660046116cb565b6103c0565b005b6006545b604051908152602001610135565b6101466101b336600461169d565b6104d6565b6101916101c63660046116f7565b610582565b6101976101d93660046116cb565b6105fd565b6101916101ec36600461169d565b610693565b6101976101ff36600461169d565b6107f5565b61016661021236600461169d565b61086e565b610197610225366004611738565b6108eb565b610146610972565b610191610240366004611755565b610981565b6101916102533660046117a9565b610a46565b61012961026636600461185a565b6001600160a01b03918216600090815260056020908152604080832093909416825291909152205460ff1690565b6060600a80546102a390611888565b80601f01602080910402602001604051908101604052809291908181526020018280546102cf90611888565b801561031c5780601f106102f15761010080835404028352916020019161031c565b820191906000526020600020905b8154815290600101906020018083116102ff57829003601f168201915b5050505050905090565b6000818152600260205260408120546001600160a01b03166103a45760405162461bcd60e51b815260206004820152602c60248201527f4552433732313a20617070726f76656420717565727920666f72206e6f6e657860448201526b34b9ba32b73a103a37b5b2b760a11b60648201526084015b60405180910390fd5b506000908152600460205260409020546001600160a01b031690565b60006103cb8261086e565b9050806001600160a01b0316836001600160a01b031614156104395760405162461bcd60e51b815260206004820152602160248201527f4552433732313a20617070726f76616c20746f2063757272656e74206f776e656044820152603960f91b606482015260840161039b565b336001600160a01b038216148061045557506104558133610266565b6104c75760405162461bcd60e51b815260206004820152603860248201527f4552433732313a20617070726f76652063616c6c6572206973206e6f74206f7760448201527f6e6572206e6f7220617070726f76656420666f7220616c6c0000000000000000606482015260840161039b565b6104d18383610b2a565b505050565b600c81815481106104e657600080fd5b90600052602060002001600091509050805461050190611888565b80601f016020809104026020016040519081016040528092919081815260200182805461052d90611888565b801561057a5780601f1061054f5761010080835404028352916020019161057a565b820191906000526020600020905b81548152906001019060200180831161055d57829003601f168201915b505050505081565b61058c3382610b98565b6105f25760405162461bcd60e51b815260206004820152603160248201527f4552433732313a207472616e736665722063616c6c6572206973206e6f74206f6044820152701ddb995c881b9bdc88185c1c1c9bdd9959607a1b606482015260840161039b565b6104d1838383610ce7565b6000610608836108eb565b82106106565760405162461bcd60e51b815260206004820152601d60248201527f6f776e657220696e646578206973206f7574206f6620626f756e647321000000604482015260640161039b565b6001600160a01b0383166000908152600860205260409020805483908110610680576106806118c3565b9060005260206000200154905092915050565b6000600c82815481106106a8576106a86118c3565b9060005260206000200180546106bd90611888565b80601f01602080910402602001604051908101604052809291908181526020018280546106e990611888565b80156107365780601f1061070b57610100808354040283529160200191610736565b820191906000526020600020905b81548152906001019060200180831161071957829003601f168201915b50505050509050600d8160405161074d91906118d9565b9081526040519081900360200190205460ff166107ac5760405162461bcd60e51b815260206004820152601d60248201527f6b727970746f48616d7374657220646f6573206e6f7420657869737473000000604482015260640161039b565b6107b582610e87565b6107bf3383610f18565b6000600d826040516107d191906118d9565b908152604051908190036020019020805491151560ff199092169190911790555050565b60065460009082106108495760405162461bcd60e51b815260206004820152601e60248201527f676c6f62616c20696e646578206973206f7574206f6620626f756e6473210000604482015260640161039b565b6006828154811061085c5761085c6118c3565b90600052602060002001549050919050565b6000818152600260205260408120546001600160a01b0316806108e55760405162461bcd60e51b815260206004820152602960248201527f4552433732313a206f776e657220717565727920666f72206e6f6e657869737460448201526832b73a103a37b5b2b760b91b606482015260840161039b565b92915050565b60006001600160a01b0382166109565760405162461bcd60e51b815260206004820152602a60248201527f4552433732313a2062616c616e636520717565727920666f7220746865207a65604482015269726f206164647265737360b01b606482015260840161039b565b506001600160a01b031660009081526003602052604090205490565b6060600b80546102a390611888565b6001600160a01b0382163314156109da5760405162461bcd60e51b815260206004820152601960248201527f4552433732313a20617070726f766520746f2063616c6c657200000000000000604482015260640161039b565b3360008181526005602090815260408083206001600160a01b03871680855290835292819020805460ff191686151590811790915590519081529192917f17307eab39ab6107e8899845ad3d59bd9653f200f220920489ca2b5937696c31910160405180910390a35050565b600d81604051610a5691906118d9565b9081526040519081900360200190205460ff1615610ab65760405162461bcd60e51b815260206004820152601c60248201527f6b727970746f48616d7374657220616c72656164792065786973747300000000604482015260640161039b565b600c80546001810182556000919091528151610af9917fdf6966c971051c3d54ec59162606531493a51404a002842f56009d7e5cf4a8c7019060208401906114b8565b50600c54600090610b0c9060019061190b565b9050610b183382610f39565b6001600d836040516107d191906118d9565b600081815260046020526040902080546001600160a01b0319166001600160a01b0384169081179091558190610b5f8261086e565b6001600160a01b03167f8c5be1e5ebec7d5bd14f71427d1e84f3dd0314c0f7b2291e5b200ac8c7c3b92560405160405180910390a45050565b6000818152600260205260408120546001600160a01b0316610c115760405162461bcd60e51b815260206004820152602c60248201527f4552433732313a206f70657261746f7220717565727920666f72206e6f6e657860448201526b34b9ba32b73a103a37b5b2b760a11b606482015260840161039b565b6040516331a9108f60e11b8152600481018390526000903090636352211e90602401602060405180830381865afa158015610c50573d6000803e3d6000fd5b505050506040513d601f19601f82011682018060405250810190610c749190611922565b9050806001600160a01b0316846001600160a01b03161480610caf5750836001600160a01b0316610ca484610326565b6001600160a01b0316145b80610cdf57506001600160a01b0380821660009081526005602090815260408083209388168352929052205460ff165b949350505050565b826001600160a01b0316610cfa8261086e565b6001600160a01b031614610d625760405162461bcd60e51b815260206004820152602960248201527f4552433732313a207472616e73666572206f6620746f6b656e2074686174206960448201526839903737ba1037bbb760b91b606482015260840161039b565b6001600160a01b038216610dc45760405162461bcd60e51b8152602060048201526024808201527f4552433732313a207472616e7366657220746f20746865207a65726f206164646044820152637265737360e01b606482015260840161039b565b610dcf600082610b2a565b6001600160a01b0383166000908152600360205260408120805460019290610df890849061190b565b90915550506001600160a01b0382166000908152600360205260408120805460019290610e2690849061193f565b909155505060008181526002602052604080822080546001600160a01b0319166001600160a01b0386811691821790925591518493918716917fddf252ad1be2c89b69c2b068fc378daa952ba7f163c4a11628f55a4df523b3ef91a4505050565b600c8054610e979060019061190b565b81548110610ea757610ea76118c3565b90600052602060002001600c8281548110610ec457610ec46118c3565b90600052602060002001908054610eda90611888565b610ee592919061153c565b50600c805480610ef757610ef7611957565b600190038181906000526020600020016000610f1391906115b7565b905550565b610f228282610fca565b610f2b8161117b565b610f358282611223565b5050565b610f43828261131c565b610f8b81600680546000838152600760205260408120829055600182018355919091527ff652222313e28459528d920b65115c16c04f3efc82aaedc97be59f3f377c0d3f0155565b6001600160a01b039190911660009081526008602081815260408084208054868652600984529185208290559282526001810183559183529091200155565b610fd43382610b98565b6110315760405162461bcd60e51b815260206004820152602860248201527f4552433732313a2063616c6c6572206973206e6f74206f776e6572206e6f7220604482015267185c1c1c9bdd995960c21b606482015260840161039b565b6001600160a01b0382166110875760405162461bcd60e51b815260206004820181905260248201527f4552433732313a206275726e20746f20746865207a65726f2061646472657373604482015260640161039b565b6040516331a9108f60e11b8152600481018290526000903090636352211e90602401602060405180830381865afa1580156110c6573d6000803e3d6000fd5b505050506040513d601f19601f820116820180604052508101906110ea9190611922565b90506110f7600083610b2a565b6001600160a01b038116600090815260036020526040812080546001929061112090849061190b565b909155505060008281526002602052604080822080546001600160a01b0319169055518391906001600160a01b038416907fddf252ad1be2c89b69c2b068fc378daa952ba7f163c4a11628f55a4df523b3ef908390a4505050565b60065460009061118d9060019061190b565b600083815260076020526040812054600680549394509092849081106111b5576111b56118c3565b9060005260206000200154905080600683815481106111d6576111d66118c3565b6000918252602080832090910192909255828152600790915260409020829055600680548061120757611207611957565b6001900381819060005260206000200160009055905550505050565b60006001611230846108eb565b61123a919061190b565b6000838152600960205260409020549091508082146112e1576001600160a01b038416600090815260086020526040812080548490811061127d5761127d6118c3565b906000526020600020015490508060086000876001600160a01b03166001600160a01b0316815260200190815260200160002083815481106112c1576112c16118c3565b600091825260208083209091019290925591825260099052604090208190555b6001600160a01b038416600090815260086020526040902080548390811061130b5761130b6118c3565b600091825260208220015550505050565b6001546001600160a01b031633146113765760405162461bcd60e51b815260206004820152601b60248201527f4552433732313a2063616c6c6572206973206e6f74206f776e65720000000000604482015260640161039b565b6001600160a01b0382166113cc5760405162461bcd60e51b815260206004820181905260248201527f4552433732313a206d696e7420746f20746865207a65726f2061646472657373604482015260640161039b565b6000818152600260205260409020546001600160a01b0316156114315760405162461bcd60e51b815260206004820152601c60248201527f4552433732313a20746f6b656e20616c7265616479206d696e74656400000000604482015260640161039b565b6001600160a01b038216600090815260036020526040812080546001929061145a90849061193f565b909155505060008181526002602052604080822080546001600160a01b0319166001600160a01b03861690811790915590518392907fddf252ad1be2c89b69c2b068fc378daa952ba7f163c4a11628f55a4df523b3ef908290a45050565b8280546114c490611888565b90600052602060002090601f0160209004810192826114e6576000855561152c565b82601f106114ff57805160ff191683800117855561152c565b8280016001018555821561152c579182015b8281111561152c578251825591602001919060010190611511565b506115389291506115f4565b5090565b82805461154890611888565b90600052602060002090601f01602090048101928261156a576000855561152c565b82601f1061157b578054855561152c565b8280016001018555821561152c57600052602060002091601f016020900482015b8281111561152c57825482559160010191906001019061159c565b5080546115c390611888565b6000825580601f106115d3575050565b601f0160209004906000526020600020908101906115f191906115f4565b50565b5b8082111561153857600081556001016115f5565b60006020828403121561161b57600080fd5b81356001600160e01b03198116811461163357600080fd5b9392505050565b60005b8381101561165557818101518382015260200161163d565b83811115611664576000848401525b50505050565b602081526000825180602084015261168981604085016020870161163a565b601f01601f19169190910160400192915050565b6000602082840312156116af57600080fd5b5035919050565b6001600160a01b03811681146115f157600080fd5b600080604083850312156116de57600080fd5b82356116e9816116b6565b946020939093013593505050565b60008060006060848603121561170c57600080fd5b8335611717816116b6565b92506020840135611727816116b6565b929592945050506040919091013590565b60006020828403121561174a57600080fd5b8135611633816116b6565b6000806040838503121561176857600080fd5b8235611773816116b6565b91506020830135801515811461178857600080fd5b809150509250929050565b634e487b7160e01b600052604160045260246000fd5b6000602082840312156117bb57600080fd5b813567ffffffffffffffff808211156117d357600080fd5b818401915084601f8301126117e757600080fd5b8135818111156117f9576117f9611793565b604051601f8201601f19908116603f0116810190838211818310171561182157611821611793565b8160405282815287602084870101111561183a57600080fd5b826020860160208301376000928101602001929092525095945050505050565b6000806040838503121561186d57600080fd5b8235611878816116b6565b91506020830135611788816116b6565b600181811c9082168061189c57607f821691505b602082108114156118bd57634e487b7160e01b600052602260045260246000fd5b50919050565b634e487b7160e01b600052603260045260246000fd5b600082516118eb81846020870161163a565b9190910192915050565b634e487b7160e01b600052601160045260246000fd5b60008282101561191d5761191d6118f5565b500390565b60006020828403121561193457600080fd5b8151611633816116b6565b60008219821115611952576119526118f5565b500190565b634e487b7160e01b600052603160045260246000fdfea2646970667358221220a12c8cc6ad6646adbd1820bca93b94661c593b7c4d2213fa38a9912acf4a086364736f6c634300080c0033",
  "immutableReferences": {},
  "source": "// SPDX-License-Identifier: MIT\r\npragma solidity ^0.8.0;\r\n\r\nimport \"./utils/ERC721Connector.sol\";\r\n\r\ncontract KryptoHamster is ERC721Connector {\r\n\r\n    constructor() ERC721Connector(\"KryptoHamster\",\"HAMI\") {}\r\n    \r\n    // Array to store our NFTs\r\n    string[] public kryptoHamsters;\r\n\r\n    // Keep tracks if the token already exists\r\n    mapping(string => bool) _doesExists;\r\n\r\n    function removeTokenFromArray(uint tokenId) internal {\r\n        kryptoHamsters[tokenId] = kryptoHamsters[kryptoHamsters.length - 1];\r\n        kryptoHamsters.pop();\r\n    }\r\n\r\n    function mint(string memory _kryptoHamster) public {\r\n\r\n        // Requires that the token does not already exist\r\n        require(!_doesExists[_kryptoHamster], \"kryptoHamster already exists\");\r\n\r\n        // Push the token to be minted in the array\r\n        kryptoHamsters.push(_kryptoHamster);\r\n\r\n        // Get the latest index of the array and set it as the id\r\n        uint _id = kryptoHamsters.length - 1;\r\n\r\n        // Mint ERC721 Token \r\n        _mint(msg.sender, _id);\r\n\r\n        // Set doesExists to true for the minted token\r\n        _doesExists[_kryptoHamster] = true;\r\n    }\r\n\r\n    function burn(uint256 tokenId) public {\r\n        string memory _kryptoHamster = kryptoHamsters[tokenId];\r\n\r\n        // Requires that the token does not already exist\r\n        require(_doesExists[_kryptoHamster], \"kryptoHamster does not exists\");\r\n        \r\n        // Remove the token to be burned from kryptoHamsters[]\r\n        removeTokenFromArray(tokenId);\r\n\r\n        // Burn ERC721 Token\r\n        _burn(msg.sender, tokenId);\r\n\r\n        // Set doesExists to false for the burned token\r\n        _doesExists[_kryptoHamster] = false;\r\n        \r\n    }\r\n}\r\n",
  "sourcePath": "C:\\Users\\LammyRu\\Projects\\NFT Project\\NFT Marketplace\\src\\contracts\\KryptoHamster.sol",
  "compiler": {
    "name": "solc",
    "version": "0.8.12+commit.f00d7308.Emscripten.clang"
  },
  "schemaVersion": "3.4.5",
  "updatedAt": "2022-03-08T18:27:30.453Z",
  "networkType": "ethereum",
  "devdoc": {
    "kind": "dev",
    "methods": {
      "supportsInterface(bytes4)": {
        "details": "Returns true if this contract implements the interface defined by `interfaceId`. See the corresponding https://eips.ethereum.org/EIPS/eip-165#how-interfaces-are-identified[EIP section] to learn more about how these ids are created. This function call must use less than 30 000 gas."
      },
      "tokenByIndex(uint256)": {
        "details": "Returns a token ID at a given `index` of all the tokens stored by the contract. Use along with {totalSupply} to enumerate all tokens."
      },
      "tokenOfOwnerByIndex(address,uint256)": {
        "details": "Returns a token ID owned by `owner` at a given `index` of its token list. Use along with {balanceOf} to enumerate all of ``owner``'s tokens."
      },
      "totalSupply()": {
        "details": "Returns the total amount of tokens stored by the contract."
      }
    },
    "version": 1
  },
  "userdoc": {
    "kind": "user",
    "methods": {},
    "version": 1
  }
}