{
  "contractName": "KryptoHamster",
  "abi": [
    {
      "inputs": [],
      "stateMutability": "nonpayable",
      "type": "constructor"
    },
    {
      "anonymous": false,
      "inputs": [
        {
          "indexed": true,
          "internalType": "address",
          "name": "mintedFrom",
          "type": "address"
        },
        {
          "indexed": true,
          "internalType": "address",
          "name": "mintedTo",
          "type": "address"
        },
        {
          "indexed": true,
          "internalType": "uint256",
          "name": "mintedTokenId",
          "type": "uint256"
        }
      ],
      "name": "tokenMinted",
      "type": "event"
    },
    {
      "inputs": [
        {
          "internalType": "address",
          "name": "_owner",
          "type": "address"
        }
      ],
      "name": "balanceOf",
      "outputs": [
        {
          "internalType": "uint256",
          "name": "",
          "type": "uint256"
        }
      ],
      "stateMutability": "view",
      "type": "function",
      "constant": true
    },
    {
      "inputs": [],
      "name": "getName",
      "outputs": [
        {
          "internalType": "string",
          "name": "",
          "type": "string"
        }
      ],
      "stateMutability": "view",
      "type": "function",
      "constant": true
    },
    {
      "inputs": [],
      "name": "getSymbol",
      "outputs": [
        {
          "internalType": "string",
          "name": "",
          "type": "string"
        }
      ],
      "stateMutability": "view",
      "type": "function",
      "constant": true
    },
    {
      "inputs": [
        {
          "internalType": "uint256",
          "name": "",
          "type": "uint256"
        }
      ],
      "name": "kryptoHamsters",
      "outputs": [
        {
          "internalType": "string",
          "name": "",
          "type": "string"
        }
      ],
      "stateMutability": "view",
      "type": "function",
      "constant": true
    },
    {
      "inputs": [
        {
          "internalType": "uint256",
          "name": "tokenId",
          "type": "uint256"
        }
      ],
      "name": "ownerOf",
      "outputs": [
        {
          "internalType": "address",
          "name": "",
          "type": "address"
        }
      ],
      "stateMutability": "view",
      "type": "function",
      "constant": true
    },
    {
      "inputs": [],
      "name": "totalSupply",
      "outputs": [
        {
          "internalType": "uint256",
          "name": "",
          "type": "uint256"
        }
      ],
      "stateMutability": "view",
      "type": "function",
      "constant": true
    },
    {
      "inputs": [
        {
          "internalType": "string",
          "name": "_kryptoHamster",
          "type": "string"
        }
      ],
      "name": "mint",
      "outputs": [],
      "stateMutability": "nonpayable",
      "type": "function"
    }
  ],
  "bytecode": "0x608060405234801561001057600080fd5b50604080518082018252600d81526c25b93cb83a37a430b6b9ba32b960991b60208083019182528351808501909452600484526348414d4960e01b9084015281519192918391839161006491600091610082565b508051610078906001906020840190610082565b5050505050610156565b82805461008e9061011b565b90600052602060002090601f0160209004810192826100b057600085556100f6565b82601f106100c957805160ff19168380011785556100f6565b828001600101855582156100f6579182015b828111156100f65782518255916020019190600101906100db565b50610102929150610106565b5090565b5b808211156101025760008155600101610107565b600181811c9082168061012f57607f821691505b6020821081141561015057634e487b7160e01b600052602260045260246000fd5b50919050565b6108a7806101656000396000f3fe608060405234801561001057600080fd5b506004361061007d5760003560e01c8063189fa5a11161005b578063189fa5a1146100ba5780636352211e146100cd57806370a08231146100f8578063d85d3d271461010b57600080fd5b8063150704011461008257806317d7de7c146100a057806318160ddd146100a8575b600080fd5b61008a610120565b6040516100979190610650565b60405180910390f35b61008a6101b2565b6004545b604051908152602001610097565b61008a6100c8366004610683565b6101c1565b6100e06100db366004610683565b61026d565b6040516001600160a01b039091168152602001610097565b6100ac61010636600461069c565b6102b1565b61011e6101193660046106e2565b6102f5565b005b60606001805461012f90610793565b80601f016020809104026020016040519081016040528092919081815260200182805461015b90610793565b80156101a85780601f1061017d576101008083540402835291602001916101a8565b820191906000526020600020905b81548152906001019060200180831161018b57829003601f168201915b5050505050905090565b60606000805461012f90610793565b600881815481106101d157600080fd5b9060005260206000200160009150905080546101ec90610793565b80601f016020809104026020016040519081016040528092919081815260200182805461021890610793565b80156102655780601f1061023a57610100808354040283529160200191610265565b820191906000526020600020905b81548152906001019060200180831161024857829003601f168201915b505050505081565b6000818152600260205260408120546001600160a01b0316806102ab5760405162461bcd60e51b81526004016102a2906107ce565b60405180910390fd5b92915050565b60006001600160a01b0382166102d95760405162461bcd60e51b81526004016102a2906107ce565b506001600160a01b031660009081526003602052604090205490565b6009816040516103059190610810565b9081526040519081900360200190205460ff16156103655760405162461bcd60e51b815260206004820152601c60248201527f6b727970746f48616d7374657220616c7265616479206578697374730000000060448201526064016102a2565b6008805460018101825560009190915281516103a8917ff3f7a9fe364faab93b216da50a3214154f22a0a2b415b23a84c8169e8b636ee301906020840190610587565b506008546000906103bb90600190610842565b90506103c733826103fd565b60016009836040516103d99190610810565b908152604051908190036020019020805491151560ff199092169190911790555050565b6104078282610444565b61044081600480546001810182556000919091527f8a35acfbc15ff81a39ae7d344fd709f28e8600b4aa8c65c6b64bfe7fe36bd19b0155565b5050565b6001600160a01b03821661049a5760405162461bcd60e51b815260206004820152601e60248201527f4552433732313a206d696e74656420746f207a65726f2061646472657373000060448201526064016102a2565b6000818152600260205260409020546001600160a01b0316156104ff5760405162461bcd60e51b815260206004820152601c60248201527f4552433732313a20746f6b656e20616c7265616479206d696e7465640000000060448201526064016102a2565b600081815260026020908152604080832080546001600160a01b0319166001600160a01b038716908117909155835260039091528120805460019290610546908490610859565b909155505060405181906001600160a01b038416906000907f7af4559a9f15cdd8e3314ffa569e8a722dcba98677e213e350fcda98ff3702a6908290a45050565b82805461059390610793565b90600052602060002090601f0160209004810192826105b557600085556105fb565b82601f106105ce57805160ff19168380011785556105fb565b828001600101855582156105fb579182015b828111156105fb5782518255916020019190600101906105e0565b5061060792915061060b565b5090565b5b80821115610607576000815560010161060c565b60005b8381101561063b578181015183820152602001610623565b8381111561064a576000848401525b50505050565b602081526000825180602084015261066f816040850160208701610620565b601f01601f19169190910160400192915050565b60006020828403121561069557600080fd5b5035919050565b6000602082840312156106ae57600080fd5b81356001600160a01b03811681146106c557600080fd5b9392505050565b634e487b7160e01b600052604160045260246000fd5b6000602082840312156106f457600080fd5b813567ffffffffffffffff8082111561070c57600080fd5b818401915084601f83011261072057600080fd5b813581811115610732576107326106cc565b604051601f8201601f19908116603f0116810190838211818310171561075a5761075a6106cc565b8160405282815287602084870101111561077357600080fd5b826020860160208301376000928101602001929092525095945050505050565b600181811c908216806107a757607f821691505b602082108114156107c857634e487b7160e01b600052602260045260246000fd5b50919050565b60208082526022908201527f6f776e657220717565727920666f72206e6f6e2d6578697374656e7420746f6b60408201526132b760f11b606082015260800190565b60008251610822818460208701610620565b9190910192915050565b634e487b7160e01b600052601160045260246000fd5b6000828210156108545761085461082c565b500390565b6000821982111561086c5761086c61082c565b50019056fea264697066735822122081200db5c694bc2b621c6c6fe4aa30f076cfae3e0a5a25188eb79acfcdab664a64736f6c634300080c0033",
  "immutableReferences": {},
  "source": "// SPDX-License-Identifier: MIT\r\npragma solidity ^0.8.0;\r\n\r\nimport \"./ERC721Connector.sol\";\r\n\r\ncontract KryptoHamster is ERC721Connector {\r\n\r\n    constructor() ERC721Connector(\"KryptoHamster\",\"HAMI\") {}\r\n    \r\n\r\n    // Array to store our NFTs\r\n    string[] public kryptoHamsters;\r\n\r\n    // Keep tracks if the token already exists\r\n    mapping(string => bool) _doesExists;\r\n\r\n    function mint(string memory _kryptoHamster) public {\r\n\r\n        // Requires that the token does not already exist\r\n        require(!_doesExists[_kryptoHamster], \"kryptoHamster already exists\");\r\n\r\n        // Push the token to be minted in the array\r\n        kryptoHamsters.push(_kryptoHamster);\r\n\r\n        // Get the latest index of the array and set it as the id\r\n        uint _id = kryptoHamsters.length - 1;\r\n\r\n        // Mint ERC721 Token \r\n        _mintToken(msg.sender, _id);\r\n\r\n        // Set doesExists true for the token\r\n        _doesExists[_kryptoHamster] = true;\r\n    }\r\n}\r\n",
  "sourcePath": "C:\\Users\\LammyRu\\Projects\\NFT Project\\NFT Marketplace\\src\\contracts\\KryptoHamster.sol",
  "compiler": {
    "name": "solc",
    "version": "0.8.12+commit.f00d7308.Emscripten.clang"
  },
  "schemaVersion": "3.4.5",
  "updatedAt": "2022-03-06T04:23:49.051Z",
  "networkType": "ethereum",
  "devdoc": {
    "kind": "dev",
    "methods": {},
    "version": 1
  },
  "userdoc": {
    "kind": "user",
    "methods": {},
    "version": 1
  }
}