{
  "contractName": "KryptoHamster",
  "abi": [
    {
      "inputs": [],
      "stateMutability": "nonpayable",
      "type": "constructor"
    },
    {
      "anonymous": false,
      "inputs": [
        {
          "indexed": true,
          "internalType": "address",
          "name": "_from",
          "type": "address"
        },
        {
          "indexed": true,
          "internalType": "address",
          "name": "_to",
          "type": "address"
        },
        {
          "indexed": true,
          "internalType": "uint256",
          "name": "_tokenId",
          "type": "uint256"
        }
      ],
      "name": "Transfer",
      "type": "event"
    },
    {
      "inputs": [
        {
          "internalType": "address",
          "name": "_owner",
          "type": "address"
        }
      ],
      "name": "balanceOf",
      "outputs": [
        {
          "internalType": "uint256",
          "name": "",
          "type": "uint256"
        }
      ],
      "stateMutability": "view",
      "type": "function",
      "constant": true
    },
    {
      "inputs": [],
      "name": "getName",
      "outputs": [
        {
          "internalType": "string",
          "name": "",
          "type": "string"
        }
      ],
      "stateMutability": "view",
      "type": "function",
      "constant": true
    },
    {
      "inputs": [],
      "name": "getSymbol",
      "outputs": [
        {
          "internalType": "string",
          "name": "",
          "type": "string"
        }
      ],
      "stateMutability": "view",
      "type": "function",
      "constant": true
    },
    {
      "inputs": [
        {
          "internalType": "uint256",
          "name": "",
          "type": "uint256"
        }
      ],
      "name": "kryptoHamsters",
      "outputs": [
        {
          "internalType": "string",
          "name": "",
          "type": "string"
        }
      ],
      "stateMutability": "view",
      "type": "function",
      "constant": true
    },
    {
      "inputs": [
        {
          "internalType": "uint256",
          "name": "tokenId",
          "type": "uint256"
        }
      ],
      "name": "ownerOf",
      "outputs": [
        {
          "internalType": "address",
          "name": "",
          "type": "address"
        }
      ],
      "stateMutability": "view",
      "type": "function",
      "constant": true
    },
    {
      "inputs": [
        {
          "internalType": "uint256",
          "name": "_index",
          "type": "uint256"
        }
      ],
      "name": "tokenByIndex",
      "outputs": [
        {
          "internalType": "uint256",
          "name": "",
          "type": "uint256"
        }
      ],
      "stateMutability": "view",
      "type": "function",
      "constant": true
    },
    {
      "inputs": [
        {
          "internalType": "address",
          "name": "_owner",
          "type": "address"
        },
        {
          "internalType": "uint256",
          "name": "_index",
          "type": "uint256"
        }
      ],
      "name": "tokenOfOwnerByIndex",
      "outputs": [
        {
          "internalType": "uint256",
          "name": "",
          "type": "uint256"
        }
      ],
      "stateMutability": "view",
      "type": "function",
      "constant": true
    },
    {
      "inputs": [],
      "name": "totalSupply",
      "outputs": [
        {
          "internalType": "uint256",
          "name": "",
          "type": "uint256"
        }
      ],
      "stateMutability": "view",
      "type": "function",
      "constant": true
    },
    {
      "inputs": [
        {
          "internalType": "address",
          "name": "_from",
          "type": "address"
        },
        {
          "internalType": "address",
          "name": "_to",
          "type": "address"
        },
        {
          "internalType": "uint256",
          "name": "_tokenId",
          "type": "uint256"
        }
      ],
      "name": "transferFrom",
      "outputs": [],
      "stateMutability": "nonpayable",
      "type": "function"
    },
    {
      "inputs": [
        {
          "internalType": "string",
          "name": "_kryptoHamster",
          "type": "string"
        }
      ],
      "name": "mint",
      "outputs": [],
      "stateMutability": "nonpayable",
      "type": "function"
    }
  ],
  "bytecode": "0x60806040523480156200001157600080fd5b50604080518082018252600d81526c25b93cb83a37a430b6b9ba32b960991b60208083019182528351808501909452600484526348414d4960e01b90840152815191929183918391620000679160009162000088565b5080516200007d90600190602084019062000088565b50505050506200016b565b82805462000096906200012e565b90600052602060002090601f016020900481019282620000ba576000855562000105565b82601f10620000d557805160ff191683800117855562000105565b8280016001018555821562000105579182015b8281111562000105578251825591602001919060010190620000e8565b506200011392915062000117565b5090565b5b8082111562000113576000815560010162000118565b600181811c908216806200014357607f821691505b602082108114156200016557634e487b7160e01b600052602260045260246000fd5b50919050565b610de0806200017b6000396000f3fe608060405234801561001057600080fd5b506004361061009e5760003560e01c80632f745c59116100665780632f745c59146101035780634f6ccce7146101165780636352211e1461012957806370a0823114610154578063d85d3d271461016757600080fd5b806315070401146100a357806317d7de7c146100c157806318160ddd146100c9578063189fa5a1146100db57806323b872dd146100ee575b600080fd5b6100ab61017a565b6040516100b89190610ac4565b60405180910390f35b6100ab61020c565b6005545b6040519081526020016100b8565b6100ab6100e9366004610af7565b61021b565b6101016100fc366004610b28565b6102c7565b005b6100cd610111366004610b69565b6102d7565b6100cd610124366004610af7565b6103d2565b61013c610137366004610af7565b6104a9565b6040516001600160a01b0390911681526020016100b8565b6100cd610162366004610b95565b6104e4565b610101610175366004610bcf565b610528565b60606001805461018990610c80565b80601f01602080910402602001604051908101604052809291908181526020018280546101b590610c80565b80156102025780601f106101d757610100808354040283529160200191610202565b820191906000526020600020905b8154815290600101906020018083116101e557829003601f168201915b5050505050905090565b60606000805461018990610c80565b6009818154811061022b57600080fd5b90600052602060002001600091509050805461024690610c80565b80601f016020809104026020016040519081016040528092919081815260200182805461027290610c80565b80156102bf5780601f10610294576101008083540402835291602001916102bf565b820191906000526020600020905b8154815290600101906020018083116102a257829003601f168201915b505050505081565b6102d2838383610630565b505050565b6040516370a0823160e01b81526001600160a01b038316600482015260009030906370a0823190602401602060405180830381865afa15801561031e573d6000803e3d6000fd5b505050506040513d601f19601f820116820180604052508101906103429190610cbb565b82106103955760405162461bcd60e51b815260206004820152601c60248201527f6f776e657220696e646578206973206f7574206f6620626f756e64730000000060448201526064015b60405180910390fd5b6001600160a01b03831660009081526007602052604090208054839081106103bf576103bf610cd4565b9060005260206000200154905092915050565b6000306001600160a01b03166318160ddd6040518163ffffffff1660e01b8152600401602060405180830381865afa158015610412573d6000803e3d6000fd5b505050506040513d601f19601f820116820180604052508101906104369190610cbb565b82106104845760405162461bcd60e51b815260206004820152601d60248201527f676c6f62616c20696e646578206973206f7574206f6620626f756e6473000000604482015260640161038c565b6005828154811061049757610497610cd4565b90600052602060002001549050919050565b6000818152600260205260408120546001600160a01b0316806104de5760405162461bcd60e51b815260040161038c90610cea565b92915050565b60006001600160a01b03821661050c5760405162461bcd60e51b815260040161038c90610cea565b506001600160a01b031660009081526003602052604090205490565b600a816040516105389190610d2c565b9081526040519081900360200190205460ff16156105985760405162461bcd60e51b815260206004820152601c60248201527f6b727970746f48616d7374657220616c72656164792065786973747300000000604482015260640161038c565b6009805460018101825560009190915281516105db917f6e1540171b6c0c960b71a7020d9f60077f6af931a8bbf590da0223dacf75c7af019060208401906109fb565b506009546000906105ee90600190610d5e565b90506105fa3382610827565b6001600a8360405161060c9190610d2c565b908152604051908190036020019020805491151560ff199092169190911790555050565b6001600160a01b0382166106925760405162461bcd60e51b815260206004820152602360248201527f455243373231205472616e7366657220746f20746865207a65726f206164647260448201526265737360e81b606482015260840161038c565b6040516331a9108f60e11b8152600481018290526001600160a01b038416903090636352211e90602401602060405180830381865afa1580156106d9573d6000803e3d6000fd5b505050506040513d601f19601f820116820180604052508101906106fd9190610d75565b6001600160a01b03161461076f5760405162461bcd60e51b815260206004820152603360248201527f547279696e6720746f207472616e73666572206120746f6b656e20746865206160448201527232323932b9b9903237b2b9903737ba1037bbb760691b606482015260840161038c565b6001600160a01b0383166000908152600360205260408120805460019290610798908490610d5e565b90915550506001600160a01b03821660009081526003602052604081208054600192906107c6908490610d92565b909155505060008181526002602052604080822080546001600160a01b0319166001600160a01b0386811691821790925591518493918716917fddf252ad1be2c89b69c2b068fc378daa952ba7f163c4a11628f55a4df523b3ef91a4505050565b61083182826108b8565b61087981600580546000838152600660205260408120829055600182018355919091527f036b6384b5eca791c62761152d0c79bb0604c104a5fb6f4eb0703f3154bb3db00155565b6001600160a01b039190911660009081526007602081815260408084208054868652600884529185208290559282526001810183559183529091200155565b6001600160a01b03821661090e5760405162461bcd60e51b815260206004820152601e60248201527f4552433732313a206d696e74656420746f207a65726f20616464726573730000604482015260640161038c565b6000818152600260205260409020546001600160a01b0316156109735760405162461bcd60e51b815260206004820152601c60248201527f4552433732313a20746f6b656e20616c7265616479206d696e74656400000000604482015260640161038c565b600081815260026020908152604080832080546001600160a01b0319166001600160a01b0387169081179091558352600390915281208054600192906109ba908490610d92565b909155505060405181906001600160a01b038416906000907fddf252ad1be2c89b69c2b068fc378daa952ba7f163c4a11628f55a4df523b3ef908290a45050565b828054610a0790610c80565b90600052602060002090601f016020900481019282610a295760008555610a6f565b82601f10610a4257805160ff1916838001178555610a6f565b82800160010185558215610a6f579182015b82811115610a6f578251825591602001919060010190610a54565b50610a7b929150610a7f565b5090565b5b80821115610a7b5760008155600101610a80565b60005b83811015610aaf578181015183820152602001610a97565b83811115610abe576000848401525b50505050565b6020815260008251806020840152610ae3816040850160208701610a94565b601f01601f19169190910160400192915050565b600060208284031215610b0957600080fd5b5035919050565b6001600160a01b0381168114610b2557600080fd5b50565b600080600060608486031215610b3d57600080fd5b8335610b4881610b10565b92506020840135610b5881610b10565b929592945050506040919091013590565b60008060408385031215610b7c57600080fd5b8235610b8781610b10565b946020939093013593505050565b600060208284031215610ba757600080fd5b8135610bb281610b10565b9392505050565b634e487b7160e01b600052604160045260246000fd5b600060208284031215610be157600080fd5b813567ffffffffffffffff80821115610bf957600080fd5b818401915084601f830112610c0d57600080fd5b813581811115610c1f57610c1f610bb9565b604051601f8201601f19908116603f01168101908382118183101715610c4757610c47610bb9565b81604052828152876020848701011115610c6057600080fd5b826020860160208301376000928101602001929092525095945050505050565b600181811c90821680610c9457607f821691505b60208210811415610cb557634e487b7160e01b600052602260045260246000fd5b50919050565b600060208284031215610ccd57600080fd5b5051919050565b634e487b7160e01b600052603260045260246000fd5b60208082526022908201527f6f776e657220717565727920666f72206e6f6e2d6578697374656e7420746f6b60408201526132b760f11b606082015260800190565b60008251610d3e818460208701610a94565b9190910192915050565b634e487b7160e01b600052601160045260246000fd5b600082821015610d7057610d70610d48565b500390565b600060208284031215610d8757600080fd5b8151610bb281610b10565b60008219821115610da557610da5610d48565b50019056fea26469706673582212208f6f6ddebf7c73fc9fb23ae1da39f329e329063db53617233874fe42722e2c7164736f6c634300080c0033",
  "immutableReferences": {},
  "source": "// SPDX-License-Identifier: MIT\r\npragma solidity ^0.8.0;\r\n\r\nimport \"./ERC721Connector.sol\";\r\n\r\ncontract KryptoHamster is ERC721Connector {\r\n\r\n    constructor() ERC721Connector(\"KryptoHamster\",\"HAMI\") {}\r\n    \r\n\r\n    // Array to store our NFTs\r\n    string[] public kryptoHamsters;\r\n\r\n    // Keep tracks if the token already exists\r\n    mapping(string => bool) _doesExists;\r\n\r\n    function mint(string memory _kryptoHamster) public {\r\n\r\n        // Requires that the token does not already exist\r\n        require(!_doesExists[_kryptoHamster], \"kryptoHamster already exists\");\r\n\r\n        // Push the token to be minted in the array\r\n        kryptoHamsters.push(_kryptoHamster);\r\n\r\n        // Get the latest index of the array and set it as the id\r\n        uint _id = kryptoHamsters.length - 1;\r\n\r\n        // Mint ERC721 Token \r\n        _mintToken(msg.sender, _id);\r\n\r\n        // Set doesExists true for the token\r\n        _doesExists[_kryptoHamster] = true;\r\n    }\r\n}\r\n",
  "sourcePath": "C:\\Users\\LammyRu\\Projects\\NFT Project\\NFT Marketplace\\src\\contracts\\KryptoHamster.sol",
  "compiler": {
    "name": "solc",
    "version": "0.8.12+commit.f00d7308.Emscripten.clang"
  },
  "schemaVersion": "3.4.5",
  "updatedAt": "2022-03-07T12:16:09.557Z",
  "networkType": "ethereum",
  "devdoc": {
    "kind": "dev",
    "methods": {},
    "version": 1
  },
  "userdoc": {
    "kind": "user",
    "methods": {},
    "version": 1
  }
}